:020000040000FA
:0600000002010A022003C8
:03002B000224426A
:0300530002207612
:03006B000224115B
:10008300021E6FE5C754F84401F5C7790122000049
:100093000080FB120086B900030200F4E4792178A2
:1000A30008B800028004F709D8FCE479297802B87B
:1000B30000028004F709D8FCE490028178B4790740
:1000C3008002F0A3D8FCD9FA900934AA82AB8390BA
:1000D300013A78A479028015E493A3AC82AD838AB4
:1000E300828B83F0A3AA82AB838C828D83D8E9D9D8
:1000F300E77582A27583FF740112011C75829175E5
:100103008300740012011C75D00075813F7518813E
:10011300751902759F00020096C09FF59FE473D086
:100123009F22D083D082C09FE493C0E0740193C028
:10013300E0740293F59F22FF0000B400002800281A
:1001430000283075A000A000A000A000000800084F
:10015300E001F0001000100010001000100010006B
:1001630050005000500010001000D00700000000A5
:1001730000000F00010005003075070010000100AA
:1001830081FF00000000FFDB04F904E104FF020229
:100193000208025000A0000000E8030212810100DF
:1001A3000002810210810100008B09021881010005
:1001B30000B3020210810100008C09020E810100CC
:1001C30000C9020210810100008D090208810100AB
:1001D30000CB020210810100008E09020A8108008F
:1001E30000CC020210810100008F09020C81010082
:1001F300009009FF0100FF20021281010000058128
:10020300021081010000F409021A810000000000BD
:1002130002248103000019039F0A9F0A9F0A9F0A71
:100223009F0A9F0A9F0A9F0A9F0A9F0A9F0A9F0A83
:100233009F0A210D390D1B0DFFFF01E803053F1038
:100243000AFF0001307503020106000000000000F0
:10025300000000000000000000000000000000009B
:10026300000000000000FFFF0600800CE8030A10F6
:1002730010021281010000B1800210810100006BA5
:100283000A021E810300001B090210810100006C99
:100293000A0220810000001C0902248103000020BF
:1002A300090210810100006D0A0222810000001E74
:1002B300090224810300002609080954454D5030E2
:1002C30030360201060702A084424C4520544D50AB
:1002D30030303600DD110000E311120125D3A603EF
:1002E300120125EAA6031201251BA70312012556B5
:1002F300A70312012580A703120125AAA703120150
:1003030025C1A703120125D8A703120125EFA703CF
:1003130012012518A8031201252BA8031201254158
:10032300A80312012554A8031201257BA803120177
:100333002554C00212012558C10212012590C102A1
:10034300120125B3C102120125BEC102120125E12A
:10035300C102120125F0C202120125C5C302120116
:100363002540C402120125C8C40212012503C50297
:100373001201253AC502120125C8C502120125A1A1
:10038300C60212012501C7021201250CC702120180
:10039300258BC7021201258EC70212012591C702C0
:1003A30012012520C80212012523C8021201255378
:1003B300C8021201257DC8021201256BC902120170
:1003C300251DCA0212012556EE021201257EEE02F8
:1003D300120125ACEE02120125E3EE0212012541C2
:1003E300EF021201258CEF02120125D7EF02120151
:1003F3002517F0021201255DF0021201258BF00290
:1004030012012548F10212012552F1021201255F62
:10041300F10212012592F1021201255EF20212018C
:10042300256AF20212012582F2021201258CF202E0
:10043300120125EBB203120125F9B20312012511B2
:10044300B30312012529B30312012588DC0112012C
:100453002534DD01120125AFDD01120125D0DE01B6
:100463001201250CDF01120125B5DF011201259CC4
:10047300E00112012500E20112012557E2011201F8
:1004830025D8E201120125C8E30112012515E40173
:100493001201259BE401120125CDE401120125E19E
:1004A300E60112012523E70112012541E7011201AB
:1004B30025C4E70112012598E80112012560E9012D
:1004C3001201250CE202120125DFE2021201258846
:1004D300E302120125DBE3021201258BE402120180
:1004E3002517E50212012503E60212012532E60271
:1004F30012012545E7021201258DE702120125624B
:10050300E8021201259EE802120125BAE80212014F
:100513002564B6031201251A8D03120125308D03BC
:10052300120125568D03120125728E031201257CBB
:100533008E03120125B18F03120125A99003120125
:10054300252FE9021201255FEA0212012592EA0230
:10055300120125DCEA02120125A3EC021201256136
:10056300BD01120125CBBD011201252ABF011201D4
:10057300253ABF0112012567BF01120125BEBF0144
:1005830012012567C0011201256EC1011201253830
:10059300C20112012598C301120125DBC301120117
:1005A3002580C401120125CDC401120125F3C40124
:1005B30012012501C70112012506C7011201250BEE
:1005C300C90112012558C901120125CBC901120124
:1005D30025FEC901120125A0CA0112012549CB013B
:1005E30012012581CB0112012584CB01120125CCF7
:1005F300CB011201250CCC0112012563CC011201A0
:1006030025F69C031201250E9D03120125569D0319
:100613001201256C9D03120125B39D03120125C709
:100623009E03120125549F031201259F9F0312016C
:10063300256242001201256E4200120125A94200E3
:10064300120125EE4200120125AE430012012534AA
:100653004400120125994400120125C544001201EA
:1006630025FE44001201253C4700120125204900C4
:10067300120125064B00120125494C001201259752
:100683004E00120125A94F00120125F4500012015A
:10069300250452001201252152001201255C52004B
:1006A3001201257E5200120125E15200120125A2FA
:1006B30057001201253758001201258858001201EE
:1006C30025AF58001201250159001201251F5900B9
:1006D300120125795900120125625A00120125D809
:1006E3005B001201255C5C00120125B2F7021201C6
:1006F30025BCF702120125FFF7021201251AF802A1
:10070300120125AAF802120125D2F8021201250FBF
:10071300F90212012546F9021201256FF9021201AD
:1007230025E4F902120125F9F9021201250EFA0254
:100733001201253FFA0212012553FA02120125780C
:10074300FA02120125B2FA02120125DEFA0212019F
:100753002561FB02120125AAFB02120125D4FB022B
:10076300120125FFFB02120125ECB003120125182B
:10077300A90212012546A90212012594AA02120117
:100783002574AB0212012593AB0212012510AC02B2
:1007930012012553AC02120125A9AD021201256AEB
:1007A300AE02120125F1B00212012592B10212012B
:1007B3002588B20212012585B302120125DFB40296
:1007C3001201256AB5021201252BAD0312012594EE
:1007D300AD03120125E8AD031201250FAE0312018B
:1007E3002540AE031201250080031201256D80030D
:1007F300120125B48003120125CC8103120125C8FF
:100803008203120125AB83031201258ECA02120152
:1008130025D0CA02120125A2CB021201257BCC02EC
:1008230012012575CD0212012557CE02120125C0F2
:10083300CE0212012576CF02120125EACF02120160
:100843002556D0021201257FD002120125F9D002CC
:1008530012012592D102120125F7D1021201250CB2
:10086300D20212012552D2021201256BD2021201C9
:1008730025D0D202120125D3D202120125209703DB
:100883001201254897031201258697031201254477
:100893009803120125AB9803120125C7980312018F
:1008A30025EF98031201251F99031201252E9903A1
:1008B300120125AB9903120125D199031201255089
:1008C300CD011201252ECF0112012560D1011201A4
:1008D300259CD101120125C9D101120125B3D201F1
:1008E300120125FED20112012549D3011201255B14
:1008F300D3011201259BD301120125D0D30112018B
:10090300251ED4011201254DD40112012570D401F5
:10091300120125BDD40112012542D5011201255C26
:10092300D7011201259BD901120125DCD90112013E
:10093300257EDB01120125BFDB0112012532DC011B
:10094300120125039C02120125019D021201259A21
:10095300A302120125BBA50212012586A7021201DB
:1009630025EEA802120125C35C00120125725D0069
:10097300120125B85D00120125F85E001201258ED3
:100983006000120125086100120125236100120194
:10099300259E6100120125F86200120125586400AA
:1009A3001201255E6500120125BF6600120125D8DC
:1009B3006600120125366700120125246800120122
:1009C30025576800120125C76800120125416900F7
:1009D3001201258B6900120125556A001201252A8F
:1009E3006B00120125096C00120125946C001201A1
:1009F30025026D00120125766D00120125A16D00FF
:100A0300120125606E00120125C56F00120125E257
:100A13006F00120125017000120125F2700012010E
:100A230025177100120125417100120125BC7100C7
:100A33001201251672001201257F73001201252D64
:100A430074001201256E74001201252F8E0212010B
:100A5300257D8E02120125898E02120125678F02E0
:100A6300120125988F02120125C98F02120125490F
:100A73009002120125819002120125D390021201E6
:100A8300251091021201252D93021201255395027F
:100A93001201253E9702120125289902120125F819
:100AA3007F00120125389601120125689601120173
:100AB30025419D01120125C69E01120125C3A401F2
:100AC300120125ABA501120125E8A5011201250B91
:100AD300A6011201253CA60112012545A60112011A
:100AE300254FA6011201253DA70112012533A801B7
:100AF3001201252981011201252885011201252EC4
:100B03008501120125698C011201258291011201CF
:100B130025B39003120125AD910312012521920300
:100B23001201255F9203120125D392031201254C72
:100B330093031201255593031201256193031201B7
:100B430025769303120125B49303120125CA930357
:100B5300120125CD8803120125DA8803120125F439
:100B630088031201253389031201257189031201B8
:100B730025D68903120125EB8903120125F6890382
:100B8300120125038A031201251A8A03120125285B
:100B93008A03120125338A031201253F8A031201B6
:100BA300254E8A03120125598A031201257C8A03E3
:100BB300120125238B03120125338B031201254DCB
:100BC3008B031201256A8B03120125868B03120105
:100BD30025AB8B03120125B68B03120125CB8B03A7
:100BE300120125DF8B03120125408C0312012546D8
:100BF3008C031201254C8C03120125528C03120124
:100C0300256A8C031201259D8C03120125058002A0
:100C130012012589800212012538810212012597CC
:100C23008202120125B88402120125A48502120151
:100C330025D98502120125FB8502120125AA860208
:100C4300120125A28802120125CB88021201255D1B
:100C530089021201258F89021201259C8902120142
:100C630025F38902120125198A02120125868C02B5
:100C7300120125898D02120125E18D0212012579C8
:100C8300EB0112012583EC011201256AED0112012A
:100C93002574ED0112012596ED01120125A2ED0146
:100CA3001201253BEF011201256AEF01120125868E
:100CB300F001120125DFF00112012545F2011201B5
:100CC3002524F30112012580F301120125EDF3011F
:100CD30012012528F40112012567F40112012520D0
:100CE300F7011201253AF701120125C6F701120196
:100CF30025D4F7011201252DF8011201253BF80136
:100D0300120125AEF80112012512F9011201255C29
:100D1300F9011201259E7400120125C0740012010D
:100D230025E67600120125FB7900120125137B00CD
:100D3300120125C67B00120125A87C001201258D16
:100D4300A803120125B2A80312012524A903120145
:100D53002592DA021201259BDA02120125A4DA0296
:100D63001201257BDB021201252CDD021201256213
:100D7300DD021201259CDD02120125D2DD021201E2
:100D8300250CDE0212012540DE021201256CDE0273
:100D9300120125B5DE02120125EFDE02120125380C
:100DA300DF0212012590DF02120125C5DF021201C5
:100DB3002520E0021201255AE002120125ABE002D0
:100DC300120125E1E0021201251BE102120125496E
:100DD300E1021201256CE1021201258CB403120118
:100DE30025B8B40312012513B5031201251DB5035C
:100DF3001201252DB503120125F7D2021201250C8C
:100E0300D30212012564D302120125CBD3021201AE
:100E13002513D40212012589D402120125B8D40264
:100E2300120125C6D4021201252AD5021201256812
:100E3300D50212012583D5021201251BD602120108
:100E430025C4D60212012547D70212012580D702F5
:100E53001201250BD80212012562D802120125C105
:100E6300D802120125D3D802120125F9D8021201A2
:100E73002502D9021201255BDA0212012586AE038F
:100E830012012565AF0312012572A203120125B7D2
:100E9300A203120125FDA20312012590A40312014E
:100EA30025E8B60312012503B70312012513B7037F
:100EB30012012537B503120125E5F90112012505B4
:100EC300FA0112012509FB0112012555FB0112014B
:100ED3002575FB01120125C8FB0112012535FC0113
:100EE3001201257BFC01120125DFFC011201259172
:100EF300FF01120125CDAB0312012518AC0312012A
:100F03002548AC0312012568AC03120125C2AC03CA
:100F1300120125DAB5031201257024001201257E82
:100F230027001201253E2900120125E9290012019B
:100F3300258D2A00120125262B00120125552B0091
:100F4300120125143000120125BF30001201252F94
:100F530032001201259732001201254B3300120192
:100F6300250D36001201254C3600120125C036002E
:100F73001201251F37001201257E3700120125EDCE
:100F83003700120125E0380012012526390012012D
:100F9300256B39001201258E3900120125093B000A
:100FA3001201251C3B00120125253C00120125647A
:100FB3003C00120125903C00120125E33C00120184
:100FC30025043D00120125483D001201259A3F00EA
:100FD300120125DB3F00120125864000120125F195
:100FE30040001201252E4200120125C99F03120160
:100FF3002564A2031201256AB703120125C2B303B4
:10100300120125D2B303120125E9B3031201258985
:10101300B403120125199A03120125BF9A03120181
:1010230025DB9C03120125C1AF03120125F3AF0396
:1010330012012553B003120125AFB0031201256D30
:1010430084031201258B84031201252085031201D9
:10105300251086031201256D8803120125D4A403EC
:101063001201253DA503120125FBA5031201257AD3
:10107300A603120125FA93031201252C94031201EE
:1010830025349503120125599603120125EBB50268
:10109300120125D1B6021201251EB70212012561E4
:1010A300B702120125D6B70212012537B802120181
:1010B30025ACB80212012588B90212012593BA02A0
:1010C30012012514BB02120125BBBC0212012551DA
:1010D300BD02120125C4BD0212012540BE02120148
:1010E3002557BE021201258EBF02120125E8BF0259
:1010F3001201254BAA01120125E3AE01120125B706
:10110300B101120125E0B10112012509B201120159
:1011130025BBB201120125A1B401120125DCB501E1
:1011230012012512BB011201254BBB011201258FB0
:10113300BB01120125A1BC0112012527FC021201EA
:101143002585FC02120125A2FC02120125A7FD023E
:101153001201256FFE0212012591FF0212012532B1
:10116300AA031201258BAA03120125A3AA031201C4
:1011730025BFAA03120125D4AA03120125FBAA0342
:101183001201252CAB0312012551AB031201258B50
:10119300AB03120125A4AB03120125BFAB0312015C
:1011A3002505B20312012518B2031201252FB2033C
:1011B30012012546B2031201255DB20312012594E3
:1011C300B20312012513F302120125DDF402120109
:1011D3002595F602120125C0F60212012525F70214
:1011E3001201254AF702120125CC7F00120125D9ED
:1011F300FF02E066701008A3E066700A08A3E066C9
:10120300700408A3E06622C3E7960809E796080975
:10121300E7960809E79622C3E09608A3E09608A399
:10122300E09608A3E09622C008C3E096F50808A359
:10123300E096420808A3E096420808A3E096450812
:101243007001D3D00822080808EAC0E0EBC0E086AA
:10125300F0E7A4FA180986F0E7A42AFA180986F039
:10126300E7A42AFA180986F0E7A42AFA1986F0E710
:10127300A4FBE5F02AFA190886F0E7A42BFBE5F0B6
:101283003AFA190886F0E7A42BFBE5F03AFA1818A6
:101293000986F0E7A4C5F02BFBE43AFA1908E7C581
:1012A300F0C6A426F6E5F03BFBE43AFA1886F0E72D
:1012B300A4F6E5F00826F6E43B08F6E43A08F6D08F
:1012C300E0FBD0E0FA22E4CFC0E0E4CEC0E0E4CD1E
:1012D300C0E0E4CCC0E075F020C3E633F608E633A3
:1012E300F608E633F608E633F6181818EC33FCED87
:1012F30033FDEE33FEEF33FFC3EC9709ED9709EEB1
:101303009709EF97191919400FFFEC97FC09ED970F
:10131300FD09EE97FE191906D5F0BEECF709EDF7B6
:1013230009EEF709EFF7191919D0E0FCD0E0FDD069
:10133300E0FED0E0FF226016080808C6C313C618F3
:10134300C613C618C613C618C613C6D5E0EA22705C
:1013530009080808226016181818C6C333C608C639
:1013630033C608C633C608C633C6D5E0EA22E62725
:10137300F60809E637F60809E637F60809E637F608
:1013830022E026F608A3E036F608A3E036F608A323
:10139300E036F622E026F008A3E036F008A3E036B4
:1013A300F008A3E036F022C3E697F60809E697F6BD
:1013B3000809E697F60809E697F622C3E096F008CF
:1013C300A3E096F008A3E096F008A3E096F022E6E7
:1013D30057F60809E657F60809E657F60809E657E7
:1013E300F622E056F608A3E056F608A3E056F60800
:1013F300A3E056F622E056F008A3E056F008A3E077
:1014030056F008A3E056F022E0F608A3E0F608A39E
:10141300E0F608A3E0F622E6F008A3E6F008A3E668
:10142300F008A3E6F022E0FAA3E0FBA3E0FCA3E0CC
:10143300FD22EAF0A3EBF0A3ECF0A3EDF022CAC087
:10144300E0E6F0A308DAFAD0E0FA22CAC0E0E0A3AB
:10145300C582CCC582C583CDC583F0A3C582CCC567
:1014630082C583CDC583DAE6D0E0CA22C3E498F807
:10147300E499F91214B08026C3E49AFAE49BFBE9D9
:1014830020E7E91214B0E498F8E499F922C3E49848
:10149300F8E499F91214B0E498F8E499F9C3E49ADA
:1014A300FAE49BFB22EB20E7CFE920E7E0B9001049
:1014B300BB0008E88AF084F8AAF022E4FBC8FA2209
:1014C300EB70227B10C833C8C933C9335007C39AA2
:1014D300C3DBF280069A50012ADBEAC833F4C8C999
:1014E30033F4C9FA2275F008E4C833C8C933C933E1
:1014F300C99AC99B5004C92AC93BD5F0ECFBC83330
:10150300F4C8E4C9FA22600D08C6A2E713C618C6D8
:1015130013C6D5E0F322600C08C6C313C618C6135E
:10152300C6D5E0F422700422600D18C6C333C60882
:10153300C633C6D5E0F41822251810AF08F51840B5
:101543000215198008F51840021519D2AF22C0D030
:10155300251810AF08F518500205198008F5185022
:10156300020519D2AFD0D0222518F58210AF08F5A5
:1015730018400215198008F51840021519D2AF85D5
:101583001983222518F582E43519F58322E473259E
:1015930018C582C0E0E51934FFC583C0E0E518C370
:1015A300958224F810AF08858319858218800885F1
:1015B3008319858218D2AFCEF0A3E520F0A3780873
:1015C300E608F0A3DEFAEFF0A3E58124FAF8E608D3
:1015D300F0A3E608F0A3E608F0A30808E608F0A3E2
:1015E300E608F0A315811581D0E0FED0E0F815815F
:1015F30015811581E8C0E0EEC0E0222518C582C040
:10160300E0E51934FFC583C0E0E518C3958224F9EA
:1016130010AF088583198582188008858319858210
:1016230018D2AFCEF0A3E520F0A37808E608F0A324
:10163300DEFAEFF0A3E58124FBF8E608F0A3E60861
:10164300F0A30808E608F0A3E608F0A315811581C6
:10165300D0E0FED0E0F815811581E8C0E0EEC0E0EF
:1016630022851983851882E0A3FEE0A3F52078087C
:10167300E0A3F608DFFAE0A3FFE0A3C0E0E0A3C025
:10168300E0E0A3C0E0E0A3C0E0E0A3C0E010AF0847
:101693008582188583198008858218858319D2AFBE
:1016A300D083D082020122851983851882E0A3FEAC
:1016B300E0A3F5207808E0A3F608DFFAE0A3FFE053
:1016C300A3C0E0E0A3C0E0E0A3C0E0E0A3C0E0105B
:1016D300AF08858218858319800885821885831948
:1016E300D2AFD083D08222C0D02518C582C0E0E516
:1016F3001934FFC583C0E0E518C3958224F310AF06
:10170300088583198582188008858319858218D2F4
:10171300AFC8F0A3E9F0A3EAF0A3EBF0A37908E7DD
:1017230009F0A3D8FAECF0A3EDF0A3EEF0A3EFF0E9
:10173300A3D0E0F0A3D0E0F0A3D0E0F0A3E520F045
:10174300A3E5F0F0A322851983851882E0C0E0A306
:10175300E0F9A3E0FAA3E0FBA37808E0F608A3DF2F
:10176300FAE0FCA3E0FDA3E0FEA3E0FFA3E0C0E0FA
:10177300A3E0C0E0A3E0F5D0A3E0F520A3E0A3F548
:10178300F010AF0885831985821880088583198531
:101793008218D2AFD082D083D0E0F8D0E032740484
:1017A3008006740280027401C0E0F40412156BD049
:1017B300E0121441227404800474028000CCC0E05F
:1017C300EDC0E0E518C39CCCAD1950011D10AF0668
:1017D3008C188D1980068C188D19D2AF12144ED027
:1017E300E0FDD0E0FC22D083D082E9C0E0E493A303
:1017F300C386F0C5F095F0F908E493A386F0C5F02D
:1018030095F0700BE493A3C3994005E9048002A308
:10181300E475F002A42582F582E5F03583F583D0E3
:10182300E0F9E493A3C0E0E493C0E022D083D08244
:10183300ECC0E0EDC0E0E493A3FCE493A3FDED4C26
:10184300600D12187BEC24FFFCED34FFFD80EFE408
:1018530093A3FCE493A3FDED4C600D1218BAEC24A2
:10186300FFFCED34FFFD80EFD0E0FDD0E0FCE4931E
:10187300A3C0E0E493C0E022C0E0C3E493960874FD
:1018830001939618400FE4936670080874019366F9
:101893001870007019A3A3C3E49396087401939678
:1018A30018A3A3400DD0E0D0E0D0E002186BA3A3AF
:1018B300A3A3A3A3D0E022C0E0C0F088F0E4936622
:1018C30070080874019366187000A8F0A3A3700B46
:1018D300D0F0D0E0D0E0D0E002186BA3A3D0F0D0DA
:0218E300E02201
:1018E80074F51215FEEAFEEBFFEE2434F8EF34002F
:1018F800F988088909EE2435F582EF3400F583E08C
:10190800F8EE2437F582EF3400F583E0F50AEC852C
:101918000AF0A4FCAAF0850AF0EDA42AFDE82CF848
:10192800E43DF97A257B001214B0EA85088285091E
:1019380083F0F8740758F97401B900028004C333BE
:10194800D9FCFAE8131313541FF8EE28F8EF340003
:10195800F9E8245DF582E93400F583E05A6008EE81
:101968002434F582EF802CEE2434F582EF3400F530
:1019780083E0C0E0EE2436F582EF3400F583E0F52D
:10198800F0D0E084A8F0EE28F8EF3400F9E8243825
:10199800F582E93400F583E0F97F040216AA74F5AC
:1019A8001215FEEAFEEBFFEE2434F582EF3400F563
:1019B80083E0C0E0EE2435F582EF3400F583D0E013
:1019C800F08E828F83A3A3A3A3A3A3A3C082C08303
:1019D8008E828F83A3A3A3A3A3E0F8A3E0F9D08307
:1019E800D082E0C398F508A3E099F509EE247FF5C5
:1019F80082EF3400F583E064017069EE2480F5829B
:101A0800EF3400F583E0F8A3E0F98E828F83A3A377
:101A1800A3A3A3A3A3E0FCA3E0FD8E828F83A3A3CB
:101A2800A3A3A3E0FAA3E0FBC3EA9CEB9D5010C379
:101A3800EC98ED99402EC3EA98EB995027800EC395
:101A4800EA98EB994007C3EC98ED9940177CDC7D48
:101A580004EEFAEFFB1209FDEE247FF582EF340065
:101A6800F583E4F0EE2434F8EF3400F9E8FCE9FDFE
:101A7800EE2435F582EF3400F583E0F8EE2437F5EF
:101A880082EF3400F583E0F50AE508850AF0A4F54D
:101A980008AAF0850AF0E509A42AF509E82508F856
:101AA800E43509F97A257B001214B0EA8C828D831B
:101AB800F0F8740758F97401B900028004C333D9E7
:101AC800FCFAE8131313541FF8EE28F8EF3400F962
:101AD800E8245DF582E93400F583E05A6008EE24D5
:101AE80034F582EF802CEE2434F582EF3400F58350
:101AF800E0C0E0EE2436F582EF3400F583E0F5F03F
:101B0800D0E084A8F0EE28F8EF3400F9E82438F59E
:101B180082E93400F583E0F91223FD0219A1C0829D
:101B2800C083851882851983E0F8A3E0F9C3EA9C8D
:101B3800EB9D5010C3EC98ED99401BC3EA98EB99C4
:101B48005014800EC3EA98EB994007C3EC98ED99BE
:101B58004004790180027900D083D08222EAC39CB4
:101B6800FAEB9DFB2274EF1215FE9003A2E06408C5
:101B78006005E06407702A9061C8E060249003D093
:101B8800E0F4601DE0F875F003A4C8AAF02AF9741F
:101B9800D228FE740339FF8E828F83A3A3A3E0703B
:101BA80003021C9D906060E0C0E0EE2468F582EFBF
:101BB8003400F583D0E0F0750C45750D0575080007
:101BC800750900E5D914F50AE5D95403F50E60172F
:101BD8007403650E605CE50A6010EE2467F582EF19
:101BE8003400F583E07003021C82900540E0640134
:101BF800602AEE2482F582EF3400F583E0600478F1
:101C08000480027800850A08E508C398FA95E0FB85
:101C18001208D18A088B09EA45097005120BEF8072
:101C280074EE2482F582EF3400F583E070048A0CA8
:101C38008B0DE50A6012850C82850D83F50BE5D9BD
:101C4800F0A3150BE50B70F6EE2482F582EF340055
:101C5800F583E0604474FC250AF50A780C1217A590
:101C6800AC0AA90EEEFAEFFB120A9974021215518A
:101C7800E97026AA08AB09121063793D8E828F831A
:101C8800A3A3A3A3E0FA7B001207A5EEFAEFFB12C9
:101C98000A15120AAB790080747403650E605685C4
:101CA8000A1075110078101217A5AC0CAD0DAA0812
:101CB800AB09120A757402121551EE2468F582EF09
:101CC8003400F583E064807004747F8001E0F50CD3
:101CD800780C1217A9E50EF50C780C1217A9A90AA9
:101CE800AC08AD099003D0E0FA7B001207697402D2
:101CF80012155180139003A2E06408600BAC0CAD80
:101D08000DEEFAEFFB120B05120BFB79017F0A02AD
:101D180016AA74F51215FE74FC12153BEAFEEBFFC9
:101D28008908A2AFE433F509C2AF806AEE2463F8EC
:101D3800EF3400F97A007B00A2AFE433F50AC2AFB2
:101D480088828983E0FCA3E0FDEC4D603A888289B3
:101D580083E0FAA3E0FB8A828B83E0FCA3E0FD88A2
:101D6800828983ECF0A3EDF08A828B83E4F0A3F000
:101D780088828983E0FCA3E0FDEC4D700A888289A3
:101D880083A3A3E4F0A3F0E50AA2E092AF121063E4
:101D98009004E3E004F0EE2463F582EF3400F58369
:101DA800E0F8A3E0F9E849603DEE2463F582EF34FA
:101DB80000F583E02402FAA3E03400FBEA2402F5EC
:101DC8000AEB3400F50B780A1217A58A828B83E098
:101DD800FCA3E0F9EEFAEFFB120A3974021215516E
:101DE800E97003021D349004E3E060639004E4E0CA
:101DF800F89004E3E0C398500C74026508705090A2
:101E080004E5E0604A8E828F83A3A3A3A3E085182C
:101E180082851983F0A3E4F09004E3E0F8740212D9
:101E28001586E8F0A3E4F09004E3E0F89004E2E01B
:101E380028F07402121586AC82AD83851882851944
:101E480083AA82AB8379011207759004E3E4F0E575
:101E580009A2E092AF74041215510219A100000002
:101E68008521878522C622C0E0C0D0E8C0E0E9C04D
:101E7800E0EAC0E0EBC0E0ECC0E0EDC0E0EEC0E0BE
:101E8800C008C009C00AC00BC082C083C0F0A2AF9E
:101E9800E433FEC2AF759B00906182E0A2E050126D
:101EA800E591A2E0500C7591FE7401652170031252
:101EB8001B6DE0A2E55051E591A2E5504B7591DF0D
:101EC8009003A2E064076005E0640870237401656C
:101ED80021703579019003D0E0FA75F003A4CAA8FF
:101EE800F028FB74D22AFA74033BFB121D1A8018DF
:101EF800E0640D70139003C4E004F064287002E4F9
:101F0800F07A00E0F9120C01906182E0A2E6400349
:101F1800021FB6E591A2E64003021FB67591BF9075
:101F280003A2E064057008120B2F120B3B8003120A
:101F38000B35752100120B8FE99003A3F07900127D
:101F48000B831209737A017B009003A1E0F9120E4A
:101F580053907803E064427055900544E014F070A3
:101F68004DC2AF121F6E00782AD0E0F618D0E0F606
:101F7800E59F540770057509FF800375097FC4C084
:101F8800E07829E6F50808E65509F509740B78089C
:101F9800121519D0E02508F8906270E0A2E740F821
:101FA800E8C333906272F0906270E0D2E0F0906122
:101FB80081E0A2E35009E5E9A2E3500375E9F7A33C
:101FC800E0A2E75009E591A2E7500375917FEEA2E0
:101FD800E092AFD0F0D083D082D00BD00AD009D015
:101FE80008D0E0FED0E0FDD0E0FCD0E0FBD0E0FA85
:101FF800D0E0F9D0E0F8D0D0D0E032C0E0C0D0C016
:1020080082C083906183E0A2E05009E5BFA2E0505E
:102018000375BFFEE0A2E15009E5BFA2E1500375D8
:10202800BFFDE0A2E25009E5BFA2E2500375BFFB85
:10203800E0A2E35009E5BFA2E3500375BFF7E0A2B1
:10204800E45009E5BFA2E4500375BFEFE0A2E550F4
:1020580009E5BFA2E5500375BFDFE0A2E65009E538
:10206800BFA2E6500375BFBFD083D0828088C0E08E
:10207800C0D0E8C0E0E9C0E0EAC0E0EBC0E0ECC0F6
:10208800E0EDC0E0C0F0E5A7A2E6500FE5A1A2E6AA
:10209800500953A7BF75A1BF1220DBE5A7A2E550E1
:1020A8000CE5A1A2E5500653A7DF75A1DFE5A7A2BD
:1020B800E15009E5A1A2E1500375A1FDE5A7A2E25F
:1020C800500CE5A1A2E2500653A7FB75A1FBD0F086
:1020D800021FEC74F81215FE7521019003A2E0644A
:1020E800067015120AC98A828B83A3A3A3A3A3A38C
:1020F800E0FAA3E0FB120B1DA2AFE433FED2AF90CF
:1021080003A8E0640170187A207B009003A1E0F92D
:10211800120EDD7A207B009003A1E0F9120E59908F
:102128006182E0D2E6F0900541E0602185C6228018
:10213800169003A7E064017008E5C654F84405F555
:10214800C653BEFC121E687401652160E4EEA2E06D
:1021580092AF7F010216AA008E238F2485822885DC
:102168008327851882851983E0CEA3E0CF8528824E
:10217800852783EBC9EAC8EDCBECCA75F010C3E834
:1021880033C8E933C9EA33CAEB33CBC3EA9EF52631
:10219800EB9FF525B35004AB25AA26EC33CCED33E1
:1021A800CDD5F0DAAE23AF242274ED1215FE8A08DD
:1021B8008B098C0A8D0B7413121586780C12140B6C
:1021C8007808790C12120A7510017511C875120079
:1021D80075130050127808790C1213AA7810790830
:1021E80012120A50168010780C79081213AA781067
:1021F800790C12120A40047901800279007F0C02DE
:1022080016AA74ED1215FE8A088B098C0A8D0B74B8
:1022180013121586780C12140B780C790812120A0E
:1022280040117808790C1213AAAA08AB09AC0AADB8
:102238000B80227510007511007512007513017856
:1022480010790C1213AA78107908121371AA10AB1E
:1022580011AC12AD1380A68A828B837508FF7509AD
:10226800FF750AFF750B0078081213F87F04021631
:10227800AA74F51215FE8C828D83780812140B8AC5
:10228800828B8378081213BEEA2404F8EB3400F931
:102298008C828D83A3A3A3A3E0FCA3E0FD8882899D
:1022A80083C3E09CF0A3E09DF088828983C3E09417
:1022B80020A3E0944E40268A828B837508FF750917
:1022C800FF750AFF750BFF78081213978A828B83B4
:1022D800A3A3A3A3E02420F0A3E0344EF002225FDE
:1022E80074F51215FEE9FE9004F7E0FAA3E0FBEEA0
:1022F800C333F8E433F9749128F582748039F5838F
:10230800E02AF508A3E03BF50978081217A57A40FA
:102318007B427C0F7D0012216074021215518A08DD
:102328008B098C0A8D0B74107808121339AA08AB24
:10233800097F040216AA74F11215FE8A0C8B0D8C03
:102348000E8D0F740F121586E0FAA3E0FB741112BC
:102358001586E0F508A3E0F50978081217A5EA2420
:1023680001F508EB3400F509E4F50AF50B780C796A
:1023780008121249750871750902780C7908121249
:1023880049AA0CAB0DAC0EAD0F12216074021215E8
:10239800518B09EA450960047A0180027A00EC2A27
:1023A800FCED3400FD7413121586E0F8A3E0F9E89B
:1023B800FEE9FFECF8EDF97A717B021214B0880897
:1023C80089098E828F83780812141AECF8EDF97A4D
:1023D800717B021214B08A088B09740578081215EB
:1023E800288E828F83A3A3A3A3E508F0A3E509F0B1
:1023F8007F080216AAC082C083E9906000F0D083EB
:10240800D08222C2AF02000022C0E074F21216EAA3
:10241800A2AFE433FED2AFE589A2E04006E589A287
:10242800E15003121039758900758900C2C5EEF8AC
:10243800EEA2E092AF7F01021749C0E0C0D0E8C029
:10244800E0E9C0E0A2AFE433F8D2AFC2C7E8F9E8E8
:0F245800A2E092AFD0E0F9D0E0F8D0D0D0E032DF
:10246800FFFFFFFFFFFFFFFF74EE12159274FA12D1
:10247800153B8A0A8B0B8909ECFEEDFF7508008570
:102488000A0C850B0D780C1217E90004104927B9BE
:1024980024DA24F9241A253B255C258F25B025C785
:1024A80025F525B326D426F4261E274927492720B3
:1024B800267401650970158E828F83E0C3940350DA
:1024C8000B8E828F83E0900A37F08003750818021C
:1024D80027727402650970138E828F83E0F8A3E077
:1024E800F9900A38E8F0A3E9F08003750818022784
:1024F800727401650970158E828F83E0C39402504F
:102508000B8E828F83E090075EF0800375081802B7
:1025180027727401650970158E828F83E0C3940554
:10252800500B8E828F83E090075FF0800375081848
:102538000227727401650970158E828F83E0C39437
:1025480002500B8E828F83E0900760F0800375083D
:1025580018022772741065097027750C10750D0024
:10256800780C1217A5EEFCEFFD7A617B07120DFFC0
:1025780074021215518A0C8B0D850C82850D83808F
:10258800037508180227727401650970158E828F09
:1025980083E0C39402500B8E828F83E0900771F022
:1025A800800375081802277274016509700B8E8202
:1025B8008F83E0900A3BF080037508180227727435
:1025C80004650970229080EA780C12140B8E828FB1
:1025D80083780C12121A500F8E828F83121429904E
:1025E80007731214358003750818022772E50970FD
:1025F80021120529E97013120F91E9F50C7950128F
:1026080010EDE9F50D120F7F800B9008067401F0AC
:10261800800375081802277274076509600302268B
:10262800AD750E06750F00780E1217A58E828F8372
:10263800A3AC82AD837402121586AA82AB83120EF4
:102648000574021215518A108B1185100E85110F11
:102658007C007D00851882851983AA82AB838E82CF
:102668008F83E0F9120F25E9F50CE50CC3940A50A5
:102678002F120529E97015A90C120F97E9F50D79A4
:10268800501210EDE9F50E120F7F801C750D0074C5
:1026980007250CF5827408350DF5837401F0800860
:1026A800750802800375081802277274016509709D
:1026B800158E828F83E0C39402500B8E828F83E045
:1026C800900772F080037508180227727401650973
:1026D80070158E828F83E0C3940A500B8E828F838D
:1026E800E0900A3AF08003750818807E7401650945
:1026F800701F8E828F83E0C3940740158E828F836C
:10270800E0C39411500B8E828F83E0900A3CF080D6
:10271800597508188054740165097020900805E0FF
:10272800F50C8E828F83E0900805F0E50C703B90E5
:102738000805E064017033120F7F802E7508188039
:1027480029C3E50A9427E50B9400501B7402650918
:1027580070158E828F83E0FCA3E0FDAA0AAB0B12F2
:1027680003C7E9F5088003750802A908740612155D
:10277800517F0A02166474EC12159274DA12153B32
:10278800890D8A128B138C0A8D0B743A121586E008
:10279800F50C9080D4C082C083851882851983ACDB
:1027A80082AD83D083D082740612144E8518828538
:1027B8001983AC82AD83AA12AB13A90D120F25E9B8
:1027C800FEEEC3940A400302291DEEF9120F61E9D7
:1027D800FF900A37E064027004740180027400F507
:1027E8000878081217A9AD0CEFFCEEF9AA0AAB0B92
:1027F800120FD374011215517C147D0079007412E4
:10280800121586AA82AB83120E178A0E8B0F850EBD
:1028180008850F097412121586AC82AD837A10757B
:10282800F006EEA42424F91210E7E970437C10792D
:10283800FF7412121586AA82AB83120E77E97030E4
:102848007422121586AC82AD837A0475F006EEA464
:102858002425F91210E7E9F5087412121586AC82DE
:10286800AD83EFA2E0E433F9AA0AAB0B120451E9F5
:102878007406121586AC82AD837A0C74702EF91228
:1028880010E7E9707E7406121586AA82AB83120FD0
:1028980055750E00E50EC394045068E50EA80E7930
:1028A80000E875F003A4C8AAF075F000A42AFA7528
:1028B800F003E9A42AF97406121586E58228F508BA
:1028C800E58339F509850882850983E0F8A3E0F9ED
:1028D800E849602B850882850983A3A3E0F5107574
:1028E800110078101217A5850882850983E0FCA3DA
:1028F800E0FDAA0AAB0B1206B57402121551E905E0
:102908000E8091EFA2E1500D90075DE0F9AA0AABA5
:102918000B1206BBE97404650C700F900A37E0646B
:10292800027007AA0AAB0B120FCD79007426121594
:10293800517F0C02166474F2121592890BEAFEEBB1
:10294800FF8C088D09750A0AE50B600C14600914E0
:1029580060441460640229E2EEFAEFFB120F73E997
:10296800F50AE50AC3940A5071E5084509606B75D4
:102978000C06750D00780C1217A5EEFCEFFDAA08E1
:10298800AB09120DFF74021215518A0C8B0D850CC0
:1029980082850D838044EEFAEFFB120F6DE9F50A8C
:1029A800E50AC3940A5033E5084509602DAA08AB27
:1029B80009A90A120F67E98021EEFAEFFB120F79D5
:1029C800E9F50AE50AC3940A5010E5084509600AC2
:1029D800AA08AB09A90A120F67E9A90A7F06021615
:1029E8006474F21215928A0C8B0DE9FE7F1574FF40
:1029F800650C700474FF650D702A750800E508C33E
:102A0800940A5014EEFC7A027B00A908120F43E9DD
:102A180060027F00050880E5EE60637ABB7B0F12D9
:102A280008B3805AAA0CAB0D1208958A0A8B0B853D
:102A38000A08850B09E508450960417C007D00E529
:102A4800082405FAE5093400FB850882850983A373
:102A5800A3A3A3E0F9120F25E9F50AE50AC3940A2E
:102A6800500EEEFC7A027B00A90A120F43E97F00A0
:102A7800EE600BAA08AB09120FBB80027F14EFF9B6
:102A88007F0602166474EE1215928A0E8B0F8C0A5A
:102A98008D0B7412121586E0F50CA3E0F50D750880
:102AA8001574FF650E700474FF650F701E7E00EECE
:102AB800C3940A5062AC0CAD0DAA0AAB0BEEF91226
:102AC8000F49E960037508000E80E4AA0EAB0F12E7
:102AD80008958A108B11AE10AF11EE4F60367C004E
:102AE8007D00EE2405FAEF3400FB8E828F83A3A3CA
:102AF800A3A3E0F9120F25E9F509E509C3940A50E3
:102B080016AC0CAD0DAA0AAB0BA909120F49E97551
:102B180008008003750814A9087F0A02166474F770
:102B2800121592EAFEEBFF900777EEF0A3EFF09014
:102B3800075DE0FC7D007A267B001203C7E9F508F3
:102B480090075DE0F91206317F0102166474F212F3
:102B5800159274EC12153B8A0A8B0B850A82850B39
:102B680083A3A3E024FA7003022FA124FD700302BB
:102B78002E16147003022C4814601024FD700302F2
:102B88002DBE147003022E56023008AE0AAF0B9009
:102B98000777E0F8A3E0F9E8496069900777E0F87B
:102BA800A3E0F5838882E0F8A3E0F9E8496055EEF0
:102BB800240CF582EF3400F583E0F5087808121745
:102BC800A9EE240BF582EF3400F583E0F98E828FAD
:102BD80083A3A3A3A3A3A3A3A3A3E0FCA3E0FDEE65
:102BE8002403FAEF3400FB900777E0F8A3E0F583BD
:102BF8008882E0F8A3E0F5838882121590740112A8
:102C0800155180398E828F83A3A3A3A3A3A3A3A363
:102C1800A31217BC900773121429120463740212CA
:102C28001551E9601879018E828F83A3A3A3A3A30A
:102C3800A3A3A3A3E0FAA3E0FB12045DE902300812
:102C4800AE0AAF0B8E828F83A3E06003022D6C8ED9
:102C5800828F83A3A3A3A3A3E0A2E04003022D6C69
:102C6800900811E0F8A3E0F9E8496003022D6C7CB4
:102C78000E7D0079007406121586AA82AB83120EA7
:102C8800178A088B09AA08AB09EE240CF582EF34E1
:102C980000F583E0F8A3E0F9E849603B750806759C
:102CA800090078081217A5EE240CF582EF3400F518
:102CB80083E02410FCA3E03400FD7408121586AAF2
:102CC80082AB83120DFF74021215518A088B098595
:102CD800088285098380548E828F83A3A3A3E0FA98
:102CE800A3E0FB1208958A0C8B0D850C08850D094D
:102CF800E50845096032750C06750D00780C121749
:102D0800A5E5082405FCE5093400FD7408121586BC
:102D1800AA82AB83120DFF74021215518A0C8B0D17
:102D2800850C82850D8380030230088E828F83A3F1
:102D3800A3A3A3A3E0A2E25004D2F08002C2F0A2AF
:102D4800F0E433F879007412121586E048F0A3E035
:102D580049F07A027B0090075DE0F9120E53E97999
:102D68000002300A900777E0F8A3E0F9E8496043E9
:102D7800900777E0F8A3E0F5838882A3A3E0F8A39F
:102D8800E0F9E849602D8E828F83A3E0FC79018EFB
:102D9800828F83A3A3A3E0FAA3E0FB900777E0F870
:102DA800A3E0F5838882A3A3E0F8A3E0F5838882F3
:102DB800121590023008AE0AAF0B900777E0F8A31F
:102DC800E0F9E8496045900777E0F8A3E0F58388E3
:102DD80082A3A3E0F8A3E0F9E849602F850A828579
:102DE8000B83A3E0FC79028E828F83A3A3A3E0FA6E
:102DF800A3E0FB900777E0F8A3E0F5838882A3A31C
:102E0800E0F8A3E0F5838882121590023008AE0A34
:102E1800AF0B7C007D00EE2404FAEF3400FB8E82B9
:102E28008F83A3A3A3E0F9120F25E9F508E508C3EA
:102E3800940A5017EE240AFCEF3400FD7A0475F06A
:102E480006E508A42425F91210E1E9023008AE0AC3
:102E5800AF0B900772E06018900A3AE0F98E828F03
:102E680083A3A3A3E0FAA3E0FB12045DE902300800
:102E7800900A37E0701579058E828F83A3A3A3E0AB
:102E8800FAA3E0FB12045DE90230088E828F83A367
:102E9800A3A3E0FAA3E0FB1208958A0C8B0D850C1E
:102EA80008850D098E828F83A3A3A3A3A3A3A3E000
:102EB800A2E05076E5084509606D8508828509839A
:102EC800A3A3A3A3E060638E828F83A3A3A3A3A37A
:102ED800A3A3A3A3E0F8A3E0F9E8C4540FF879008A
:102EE8005401F8E95400F9E8A2E0403E85188285CB
:102EF8001983AC82AD83E5082405FAE5093400FBA3
:102F0800850882850983A3A3A3A3E0F9120F25E905
:102F1800701879038E828F83A3A3A3E0FAA3E0FB42
:102F280012045DE9023008023008EE2405FCEF3493
:102F380000FD850882850983A3A3A3A3E0F98E82F7
:102F48008F83A3A3A3E0FAA3E0FB120FC790077730
:102F5800E0F8A3E0F9E849603E900777E0F8A3E0DD
:102F6800F5838882A3A3E0F8A3E0F9E84960287C08
:102F78000079008E828F83A3A3A3E0FAA3E0FB90DD
:102F88000777E0F8A3E0F5838882A3A3E0F8A3E03D
:102F9800F58388821215908067120529E97061907F
:102FA8000806E06401701A120F91E9FE9008067491
:102FB80000F07C0A7D0079007A077B08120E1780E2
:102FC800357800E8C3940A502D88087509007407FD
:102FD8002508F58274083509F583E06401701488C2
:102FE8000875090074072508F58274083509F58302
:102FF8007400F00880CD79501210EDE9FE120F7FB1
:10300800790174141215517F0602166474F31215AF
:103018009274F212153B8909EAFEEBFF8C0C8518B5
:1030280082851983AC82AD837A0E75F006E509A412
:103038002420F91210E7E970727C0679FF8518825E
:10304800851983AA82AB83120E77E9705E740C121D
:103058001586E0F8A3E0F9E8F508E50C6005EE420E
:10306800088004EEF4520885080A750B00740C12E7
:103078001586E0650A7004A3E0650B602AE508A8D8
:10308800087900740C121586E508F0A3E9F0851894
:1030980082851983AC82AD837A0E75F006E509A4A2
:1030A8002420F91210E1E9790180027900740E12E6
:1030B80015517F0502166474F012159274E6121504
:1030C8003B890B8A0C8B0DECFEEDFF740C121586F8
:1030D800AC82AD837A0E75F006E50BA42420F912B4
:1030E80010E7E960030232237C0679FF740C12159D
:1030F80086AA82AB83120E77E96003023223851811
:1031080082851983AC82AD837A0C7470250BF91211
:1031180010E7E9600302321F750A008518828519D5
:1031280083AA82AB83120F55E50C450D703A7C0CCF
:103138007900851882851983AA82AB83120E77E9F4
:1031480060030231F97C0C7D0079008518828519AD
:1031580083AA82AB83120E178A088B098508828599
:103168000983750A010231F9851882851983AC82B1
:10317800AD83AA0CAB0D120F4F8A0E8B0F850E086C
:10318800850F09E50845097036EE4F6021851882DC
:10319800851983AC82AD837A007B00120F4F8A0EAB
:1031A8008B0FA80EA90F88088909E84970047900CF
:1031B800806B850882850983E50CF0A3E50DF08511
:1031C8000882850983A3A3E0F87900EE687002EF0E
:1031D80069601EEE850882850983A3A3F0EE4F700F
:1031E8000D8508828509837400F0A37400F0750AC0
:1031F80001E50A6022851882851983AA82AB8312A9
:103208000F55851882851983AC82AD837A0C74704A
:10321800250BF91210E1E9790180027900741A127C
:1032280015517F0802166474F7121592EAFEEBFF37
:103238007B00EBC39404504EEBF87900E875F0037B
:10324800A4C8AAF075F000A42AFA75F003E9A42A24
:10325800F9EC28F582ED39F583E06E7003A3E06F91
:103268007021EBF87900E875F003A4C8AAF075F0AE
:1032780000A42AFA75F003E9A42AF9EC28FAED3932
:10328800FB80070B80AC7A007B007F010216647418
:10329800F71215927F00EFC394044003023346EF00
:1032A800F87900E875F003A4C8ACF075F000A42C18
:1032B800FC75F003E9A42CF9EA28F582EB39F583CB
:1032C800E0F4FCA3E0F4FDEFF87900E875F003A45E
:1032D800C8AEF075F000A42EFE75F003E9A42EF92F
:1032E800EA28F582EB39F583ECF0A3EDF0EFF879F5
:1032F80000E875F003A4C8ACF075F000A42CFC75C8
:10330800F003E9A42CF9EA28F582EB39F583A3A3A5
:10331800E0F4C0E0EFF87900E875F003A4C8ACF079
:1033280075F000A42CFC75F003E9A42CF9EA28F543
:1033380082EB39F583A3A3D0E0F00F02329E7F0120
:1033480002166474F012159274F412153BEAFEEB3F
:10335800FF8C088D09900811E0F8A3E0F9E849709E
:103368002CEE4F6006E50845097005790102360321
:10337800EEFAEFFB120F73E9900A3DF0900A3DE078
:10338800C3940A4008120F85E9900A3DF0900A3D5F
:10339800E0C3940A4003023601900811E0F8A3E064
:1033A800F9E849600302344DEEFCEFFD7A0E75F042
:1033B80006900A3DE0A42420F91210E1E9F50C7CFE
:1033C8000C7D0079FF851882851983AA82AB831248
:1033D8000E178A0E8B0F850E0A850F0B85188285AE
:1033E8001983AC82AD837A0C900A3DE02470F912FF
:1033F80010E1E9F50D750E0E750F00780E1217A580
:10340800EEFCEFFD900A3DE0F87900E875F00EA4B7
:10341800C8AAF075F000A42AFA75F00EE9A42AF9F2
:10342800747928FA740739FB120DFF7402121551CA
:103438008A0E8B0FA80EA90F900811E508F0A3E5D6
:1034480009F00235FD900811E0F8A3E0C82406F55C
:1034580082E83400F583E0F8A3E0F9E84960439096
:103468000811E0F8A3E0C82406F582E83400F583E3
:10347800E0FCA3E0FD7A1B75F006900A3DE0A42469
:1034880021F91210E1E9F8900811E0F9A3E0C92444
:1034980006F582E93400F5837400F0A37400F002A5
:1034A80035FD900811E0F8A3E0C8240AF582E83455
:1034B80000F583E0F8A3E0F9E8496043900811E0DB
:1034C800F8A3E0C8240AF582E83400F583E0FCA3F9
:1034D800E0FD7A1B75F006900A3DE0A42422F9125B
:1034E80010E1E9F8900811E0F9A3E0C9240AF5828F
:1034F800E93400F5837400F0A37400F00235FD9000
:103508000811E0F8A3E0C8240CF582E83400F5833C
:10351800E0F8A3E0F9E8496043900811E0F8A3E077
:10352800C8240CF582E83400F583E0FCA3E0FD7ABA
:103538001075F006900A3DE0A42423F91210E1E981
:10354800F8900811E0F9A3E0C9240CF582E93400E9
:10355800F5837400F0A37400F00235FD900811E0C3
:10356800F8A3E0C82408F582E83400F583E0F8A35E
:10357800E0F9E849606F900811E0F8A3E0C8240872
:10358800F582E83400F583E0FCA3E0FD7A1075F0DD
:1035980006900A3DE0A42424F91210E1E9F50A9006
:1035A8000811E0F8A3E0C82408F582E83400F583A0
:1035B800E02410FCA3E03400FD7A0475F006900ABC
:1035C8003DE0A42425F91210E1E9F8900811E0F98A
:1035D800A3E0C92408F582E93400F5837400F0A358
:1035E8007400F08010900805E06003120FD9120FE4
:1035F800C179018006790080027901740C12155195
:103608007F0802166474F712159274F212153BE9DA
:10361800FE851882851983AC82AD837A0E75F00613
:10362800A42420F91210E7E9700E740C121586E034
:10363800F8A3E0F9E8F980027900740E1215517FB9
:103648000102166474F412159274F212153B89097A
:10365800EAFEEBFFE509C3940A5004EE4F700479C3
:1036680002804B851882851983AC82AD837A0E75EA
:10367800F006E509A42420F91210E7E9F508E508A1
:10368800702A750A06750B00780A1217A5740212BB
:103698001586AC82AD83EEFAEFFB120DFF740212B1
:1036A80015518A0A8B0B850A82850B83A908740E2B
:1036B8001215517F0402166474F4121592EAFEEB97
:1036C800FF750800E508C3940A5045750A06750B8E
:1036D80000780A1217A5EEFCEFFDE508A8087900A6
:1036E800E875F00EA4C8AAF075F000A42AFA75F0DF
:1036F8000EE9A42AF9747F28FA740739FB120E110F
:103708007402121551E96004A9088006050880B4FE
:10371800790A7F0402166474F4121592EAFEEBFF2C
:10372800750800E508C3940A5045750A06750B002C
:10373800780A1217A5EEFCEFFDE508A8087900E85D
:1037480075F00EA4C8AAF075F000A42AFA75F00E58
:10375800E9A42AF9747928FA740739FB120E11744E
:1037680002121551E96004A9088006050880B47999
:103778000A7F0402166474F712159274F012153B4E
:10378800EAFEEBFF750800E508C3940A504B85185C
:1037980082851983AC82AD837A1075F006E508A49A
:1037A8002423F91210E7E9702C7C1079FF85188220
:1037B800851983AA82AB83120E77E97018EEFCEFA5
:1037C800FD851882851983AA82AB83120433E970B8
:1037D80004A9088006050880AE790A7410121551EC
:1037E8007F0102166474F4121592750800E508C387
:1037F800940A40030238CFE508A8087900E875F074
:103808000EA4C8AAF075F000A42AFA75F00EE9A46F
:103818002AF9747928FC740739FD7A0E75F006E5E3
:1038280008A42420F91210E7E970030238CA7C06BC
:103838007D0079FFE508AA087B00EA75F00EA4CAA6
:10384800A8F075F000A428F875F00EEBA428FB7416
:10385800792AFA74073BFB120E178A0A8B0BAE0AF9
:10386800AF0B7C067D0079FFE508AA087B00EA75A6
:10387800F00EA4CAA8F075F000A428F875F00EEBB5
:10388800A428FB747F2AFA74073BFB120E178A0AD6
:103898008B0BAC0AAD0BE508A8087900E875F00EAB
:1038A800A4C8AAF075F000A42AFA75F00EE9A42AB3
:1038B800F9748528F582740739F5837400F0A374C8
:1038C80000F005080237F5900805E06003120FD9EB
:1038D800120FC17F0402166474F71215927E00EE6F
:1038E800C3940A50327C0679FFEEFA7B00EA75F041
:1038F8000EA4CAA8F075F000A428F875F00EEBA481
:1039080028FB74792AFA74073BFB120E77E96004E6
:10391800EEF980050E80C8790A7F0102166474F7F3
:103928001215927E007F00EFC3940A502F7C06790F
:10393800FFEFFA7B00EA75F00EA4CAA8F075F00054
:10394800A428F875F00EEBA428FB74792AFA7407FA
:103958003BFB120E77E970010E0F80CBEEF97F0169
:1039680002166474F71215927E007F00EFC3940A62
:10397800500DEE700AEFF9120F97E9FE0F80EDEE89
:10398800F97F0102166474F012159274CB12153B7C
:103998008909900A3DE06509701D7A017B0090074E
:1039A8005DE0F9120E59E97A027B0090075DE0F9B3
:1039B800120E59E9120FE57427121586AC82AD83F1
:1039C8007A0E75F006E509A42420F91210E7E960DB
:1039D80003023AFA7C0679FF7427121586AA82AB8D
:1039E80083120E77E96003023AFA7C0E7D0079FFB4
:1039F8007427121586AA82AB83120E178A0A8B0BBC
:103A0800850A0C850B0D7C1B7D0079FF740C121543
:103A180086AA82AB83120E178A0E8B0F850E0A8533
:103A28000F0B7C0C7D0079FF851882851983AA828B
:103A3800AB83120E178A0E8B0FAE0EAF0F742712C0
:103A48001586AC82AD837A0E75F006E509A42420AC
:103A5800F91210E1E9F508740C121586AC82AD83F1
:103A68007A1B75F006E509A42421F91210E1E94250
:103A780008740C121586AC82AD837A1B75F006E5C6
:103A880009A42422F91210E1E94208740C121586DF
:103A9800AC82AD837A1075F006E509A42423F912E7
:103AA80010E1E94208740C121586AC82AD837A10D5
:103AB80075F006E509A42424F91210E1E942087416
:103AC8000C121586AC82AD837A0475F006E509A45C
:103AD8002425F91210E1E94208851882851983AC7A
:103AE80082AD837A0C74702509F91210E1E9420855
:103AF8008003750800A90874351215517F0802164D
:103B08006474F7121592E9FE90075DF0120F7F7F3B
:103B18000102166474F2121592890AEAFEEBFFEEAE
:103B28005400F8EF5480F9E849603590075DE0F9F2
:103B3800120E3B8A0C8B0DA80CA90D88088909E880
:103B4800496012AA08AB09120FA9E96008AA08ABD4
:103B580009120E29E9EE6400FAEF6480FB023C20AA
:103B6800EE5402602D7C007D007A007B00120F5B12
:103B7800E960187A017B0090075DE0F9120E53E9BD
:103B8800EE6402FAEF6400FB023C207A027B00023A
:103B98003C20EEA2E0507D900811E0F8A3E0F58308
:103BA8008882A3A3A3E0FAA3E0FB120FDFE9605E1B
:103BB800900777E0F8A3E0F9E8496045900777E0D7
:103BC800F8A3E0F5838882A3A3E0F8A3E0F9E84925
:103BD800602F7C007901900811E0F8A3E0F5838854
:103BE80082A3A3A3E0FAA3E0FB900777E0F8A3E0A1
:103BF800F5838882A3A3E0F8A3E0F58388821215F1
:103C080090120FE5EE6401FAEF6400FB800A7A0176
:103C18007B0080047A007B007F0602166474F7122A
:103C28001592EAFEEBFF7508018E828F83E024501F
:103C3800601314601924E1701CEEFAEFFB120F3DBB
:103C4800E9F5088010EEFAEFFB120FAF8007EEFAE5
:103C5800EFFB120FB5A9087F0102166474F712155D
:103C680092EAFEEBFF8E828F83A3A3A3A3E0641ED8
:103C7800701179008E828F83A3A3E0FAA3E0FB1270
:103C88000F2BE97F0102166474F6121592EAFEEB17
:103C9800FF8E828F83A3A3A3A3E0703A8E088F09B7
:103CA800850882850983A3A3A3A3A3A3A31217BC92
:103CB800850882850983A3A3A3A3A3E0FCA3E0FD51
:103CC800850882850983A3A3E0FAA3E0FB120F31DC
:103CD8007402121551E97F0202166474F7121592E4
:103CE800EAFEEBFF90075DE0F98E828F83A3E0FA8E
:103CF800A3E0FB1206BBE97F01021664C082C08301
:103D080074FF12153B120F8BE9C39402400B851800
:103D1800828519837402F080098518828519837455
:103D28000AF0851882851983AC82AD837A017905FA
:103D3800120541E97401121551D083D08202012283
:103D480074F212159274E812153BEAFEEBFF890A29
:103D58008C088D097C187D00790085188285198367
:103D6800AA82AB83120E178A0C8B0DAC0CAD0D8595
:103D78001882851983EEF0A3EFF090075FE0C0E0AA
:103D88007402121586D0E0F0900760E0C0E074037A
:103D9800121586D0E0F0900A3CE0C0E074171215C6
:103DA80086D0E0F07415121586E054FEF8A3E054AE
:103DB800FFF9900A3BE0A2E0E433FA7B00E84AF816
:103DC800E94BF97415121586E8F0A3E9F0900A3B5F
:103DD800E0A2E15004D2F08002C2F07415121586F8
:103DE800E054FDFAA3E054FFFBA2F0E433F87900B5
:103DF800C333F8E933F9EA48F8EB49F974151215B1
:103E080086E8F0A3E9F0900A3BE0A2E35004D2F080
:103E18008002C2F07415121586E054F7FAA3E05434
:103E2800FFFBA2F0E433F50C750D007403780C1257
:103E38001528EA450CF8EB450DF97415121586E8B6
:103E4800F0A3E9F0900A3BE0A2E45004D2F080022B
:103E5800C2F07415121586E054EFFAA3E054FFFB84
:103E6800A2F0E433F50C750D007404780C121528D3
:103E7800EA450CF8EB450DF97415121586E8F0A320
:103E8800E9F0900A3BE0A2E55004D2F08002C2F0CB
:103E98007415121586E054DFFAA3E054FFFBA2F074
:103EA800E433F50C750D007405780C121528EA45F5
:103EB8000CF8EB450DF97415121586E8F0A3E9F036
:103EC800900A3BE0A2E25004D2F08002C2F07415DE
:103ED800121586E054FBFAA3E054FFFBA2F0E4338A
:103EE800F50C750D007402780C121528EA450CF8CB
:103EF800EB450DF97415121586E8F0A3E9F0900763
:103F080060E0602A750C10750D00780C1217A57CFE
:103F1800617D077406121586AA82AB83120DFF74A1
:103F2800021215518A0C8B0D850C82850D83900722
:103F380071E06012E50A600E7415121586E04402FD
:103F4800F0A3E04400F0900771E060067801790082
:103F58008004780079007414121586E048F0900700
:103F68005EE06006780479008004780079007414B3
:103F7800121586E048F0AC08AD09851882851983CA
:103F8800AA82AB83120457E974181215517F0602EE
:103F9800166474F7121592EAFEEBFF750800900795
:103FA80071E0600678017900800478007900E842C1
:103FB8000890075EE060067804790080047800794C
:103FC80000E84208A908EEFAEFFB120511E97F01A3
:103FD80002166474EE12159274E512153B8A0C8B66
:103FE8000DE9FF8C088D09742D121586E0F50A7409
:103FF800086509700A75F006EFA42422FE8008758A
:10400800F006EFA42421FE7C1B7D00790085188230
:10401800851983AA82AB83120E178A108B1185101B
:104028000E85110F851882851983AC82AD837A1BA2
:10403800EEF91210E7E9703C741A121586E0C39481
:10404800074031741A121586E0C394115026E50A08
:10405800F50B780B1217A97401121586AC82AD8383
:10406800E508A2E0E433F9AA0CAB0D120469740167
:10407800121551E9741B1215517F0A02166474F760
:10408800121592120733E97E00EEC3940A50557C4C
:104098000679FFEEFA7B00EA75F00EA4CAA8F0755F
:1040A800F000A428F875F00EEBA428FB74792AFA1E
:1040B80074073BFB120E77E97027EEF87900E87574
:1040C800F00EA4C8AAF075F000A42AFA75F00EE95B
:1040D800A42AF9747928FA740739FB790012073988
:1040E800E90E80A57F0102166474F612159274FD1C
:1040F80012153BEAFEEBFF900813E0F8A3E0F9E89D
:1041080049703975081575090878081217A57508D2
:104118000275090078081217A575082475098178B1
:10412800081217A57CFF7DFF7A017B0012058374B6
:1041380006121551900813EAF0A3EBF0900813E06B
:10414800F8A3E0F9E8497003024212E4F508F5091A
:1041580078081217A57404121586858208858309C4
:1041680078081217A57404121586858208858309B4
:1041780078081217A59008151217BC790290081331
:10418800E0FCA3E0FDEEFAEFFB1206A97408121595
:1041980051E9704A851882851983E0FA7B00740119
:1041A800121586E0F87900E4C8F9EA28F508EB3931
:1041B800F509E5084509602678081217A59008133F
:1041C800E0F8A3E0F5838882A3A3A3A3E0FCA3E01F
:1041D800FDEEFAEFFB120F317402121551E9E4F506
:1041E80008F50978081217A59008151217BC7CFF66
:1041F8007DFF900813E0FAA3E0FB12058F74041208
:104208001551900813EAF0A3EBF0900813E0F8A317
:10421800E0F9E84970047901800279007403121505
:10422800517F02021664C082C083900811E0F8A38F
:10423800E0F9E8496017900811E0FAA3E0FB120ED4
:1042480029E9F89008117400F0A37400F0900A3D71
:10425800740AF0D083D082020122C082C083E99020
:1042680009F3F00244F174F7121592E99002E1F0B3
:104278007C197D037AFF7BFF1206C19002E274FF6E
:10428800F0A3F0A3E4F0A3F079051206499002E147
:10429800E0F912056B7ADF7B061208837F010216AC
:1042A8006474F41215928A088B09EB54806030907C
:1042B80002E1E0F9120E3B8A0A8B0BAE0AAF0BEE55
:1042C8004F60138E828F83E064B07003120661EE34
:1042D800FAEFFB120E29AA08E5096480FB80047A2C
:1042E800007B000244C074F212159274FC12153B54
:1042F800EAFEEBFFEE4F60387402121586EEF0A36B
:10430800EF124725ECF0A3ED124725AA82AB8312E2
:104318000565E9F508707374121215861252D9E50D
:104328000A450B60658E828F8312439CEE4F7005A1
:1043380075080280557A067B00120E958A0C8B0D43
:10434800A80CA90DE8497005750813803D88828975
:1043580083E41243A6A3A3EEF0A3EF125772E50A73
:10436800F0A3E50BF09002E712442E9002E76017E5
:10437800E0FCA3E08003EAFCEBFD8C828D83124411
:104388002E70F38C828D831251FEA90874041215C5
:1043980051025974A3A3A3A3E0FEA3E0FF22F0A354
:1043A800F0888289832274F2121592890AE975F0DD
:1043B80017A4FEAFF09002E6E4F09002E412442E57
:1043C800600A120E9B9002E4E4F0A3F0EEFAEFFB11
:1043D800120E958A088B09EA4509602FEEFCEFFD5D
:1043E8007900120E179002E4E508F0A3E509F07BC6
:1043F800008008124418E4F0A3F00BEBC3950A40C0
:10440800F2E50A9002E6F079008002791302597405
:10441800EB75F017A4F8A9F09002E4E028FAA3E0FD
:10442800398A82F58322124F94EA4B2274F41215CA
:1044380092750800750900740C121586125746FE0D
:10444800E9FF800CE5082401F508E5093400F509C1
:10445800C3E5089CE5099D503285080A85090B7457
:1044680003780A121528EA250AF8EB350BF9888231
:104478008983A3A3A3A3A3A31252D9EE650A700349
:10448800EF650B70BFE8FAE9FB80047A007B0080D7
:104498002774F41215927900EAA2E0501B7508C23D
:1044A80075098078081217A57C047D007AF57B09C8
:1044B80012064374021215517F04021664C082C0AA
:1044C800839002E71244F8601C88828983A3A3E0E2
:1044D8006A7003A3E06B8882898370E8A3A3A3A30F
:1044E800124F9080047A007B00D083D08202012290
:1044F800125A47E8492274EE12159274FC12153BC1
:10450800EAFEEBFF851882851983E4F0A3F0EE2418
:10451800021251E2EE2405124713EE2404F50EEFC1
:10452800124AF8E024FE603924FC604624FE6052FA
:1045380024FE605E24FE700302461824FE70030207
:10454800469024FE700302469F24FE70030246AE86
:1045580024FC70030246BD24FE70030246CC0247C9
:10456800099003007417F0A3E412472D1202E30226
:104578004709851882851983AC82AD8312066702C4
:1045880046D9851882851983AC82AD8312066D02DF
:1045980046D9850C08850D097402121586AC82ADC2
:1045A80083850882850983124F901205898A0C8BAE
:1045B8000DAC0CAD0DEC4D6042E4F50CF50D780C2E
:1045C8001217A5750C00750D03780C1217A5750C3C
:1045D80001750D03780C1217A574081215861217A9
:1045E800BC7916124F8A1206A97408121551E9F5FA
:1045F8000C700B124F861202FB800F750C01850898
:104608008285098312471B1251FE850C080246DC7D
:104618007402121586AC82AD83850C82850D8312D7
:104628004F901205898A108B11AC10AD11EC4D60BA
:1046380043850C82850D83A3A31217BC75100075E2
:10464800110378101217A57510017511037810124F
:1046580017A574081215861217BC7916124F8A12FC
:1046680006A97408121551E9F509700B124F861244
:104678000301800F750901850C82850D8312471B84
:104688001251FE850908804C851882851983AC82F1
:10469800AD83120673803A851882851983AC82AD82
:1046A80083120679802B851882851983AC82AD83A5
:1046B80012067F801C851882851983AC82AD83120F
:1046C8000685800D851882851983AC82AD83120614
:1046D8008BE9F508E50860298E828F83A3E06414CE
:1046E800601F850E82850F83E09003001247251214
:1046F8005A439003011251FEE508A312472D1202F6
:10470800DDEEFAEFFB1206070250EAF50CEF340073
:10471800F50D22125A4785188285198322F08518CB
:104728008285198322F07C007D03850A82850B83AC
:10473800124F942274EE12159274FC12153B8A0AD9
:104748008B0B8C0E8D0FEA2405F508EB3400F50968
:104758007C157D0079007A007B03120E17E508248A
:1047680002F50CE50912471685188285198385829A
:104778001085831178101217A5850882850983A3EF
:10478800A3A3A3124C401217A5E5082405F510E5CC
:10479800093400F51178101217A5850C82850D8350
:1047A800124F9A12058374061215518A108B11AE96
:1047B80010AF11E50A2402F50AE50B1251E5EE4F98
:1047C800700302490280177402121586124F9088EE
:1047D800828983EAF0A3EBF0900300E004F09003F1
:1047E80000E0C394054003024902E4F510F511788E
:1047F800101217A57510E975110278101217A57512
:1048080010EA75110278101217A57406121586128F
:1048180017BC7910EEFCEFFD124F8A1206A9740836
:10482800121551E9705E850882850983A3A3A3A3A5
:10483800A3A3A3E0F89002E9E0687048124C401284
:1048480017A57CEA7D02E5082408FAE5093400FB8F
:10485800120E117402121551E960298E828F83A3FA
:10486800A3A3A3124F90900300E0F51074027810F0
:1048780012152874012510F58274033511F583EAA1
:10488800F0A3EBF0740212158685821085831178E7
:10489800101217A574021215861217BC850C828592
:1048A8000D83125A5812058F74041215518A108BF1
:1048B80011AE10AF11900300E0F5107511007402ED
:1048C800781012152874002510F874033511F9882A
:1048D800828983A312442E70030247C6E82403F892
:1048E800E93400F9EE4F60030247CF888289837468
:1048F800FFF0A3F0900300E004F0900300E0600AEA
:10490800124F861202EF7900800B85088285098391
:104918001251F5790A0250EA74EA12159274FE12DD
:10492800153B8C128D13EA2405F50CEB125BC212B1
:1049380043A0750800750900EA2402F510EB34005D
:10494800F51185188285198385820A85830B780A73
:104958001217A5850C82850D83A3A3A3A3124B026E
:104968001217A5E50C2405F50AE50D1251E5780A9C
:104978001217A5850C82850D83125A561205837469
:10498800061215518A0A8B0BEA450B7003024AB3CB
:10499800EA2404F50EEB124AF81243A08A828B83AC
:1049A800A3A3A3E0F9851082851183124F90120505
:1049B80071E9F5096003024AB3E4F514F5157814B2
:1049C8001217A57514E975150278141217A5751430
:1049D800EA75150278141217A574061215861217AF
:1049E800BC7913AC0AAD0B851082851183124F90E8
:1049F8001206A97408121551E9F5096003024AB3B1
:104A08009002E9E0F8E5087009E02402900301F05B
:104A18008017900301E0FCE82402FAE43400FBEA82
:104A28006C7001EB6003024AB7850882AA82124CB7
:104A3800379414124C2F5073850E82850F83E0C073
:104A4800E074022A124AEFD0E0F00508850E82854C
:104A58000F83A3E0C0E085080A7402250A124AEF12
:104A6800D0E0F005089002E9124B021217A57CEA83
:104A78007D0285080A7402250AFA74033400FB12C1
:104A88000DFF74021215519002E9E02508F508742B
:104A9800FF6E700374FF6F6012EE24010EEF340096
:104AA800FFE508C39414500302494AE5086013124D
:104AB8004E7B851082851183124F901202F5790082
:104AC8008014E509700375090A851282851383EE3F
:104AD800F0A3EFF0A90974021215517F0E021664B3
:104AE80085080C7402250CF58274033400F58322C2
:104AF8003400F50F850E82F583221257852274EE55
:104B080012159274FE12153B8C0E8D0FEA2405F5D2
:104B18000CEB124716750B00900300E4F0F50AEA57
:104B28002402F508EB3400F5098049900300E0FA07
:104B38009002E9E0F8124C379417124C2F400D9070
:104B48000300E0F87416C3989002E9F0124C401282
:104B580017A57CEA7D0274012AFA74033400FB125B
:104B68000DFF74021215519002E9E0F8900300E07D
:104B780028F0050AE50C2416F582E50D124AF3E043
:104B8800F8E50AC3984003024C18900300E0C39468
:104B980016507DE50AC333F8E433F9E50C28FEE541
:104BA8000D39FF851882851983AC82AD838E828F7B
:104BB80083124F901205898A108B11AC10AD11EC3D
:104BC8004D7005750B018043E4F510F5117810124E
:104BD80017A57510E975110278101217A57510EA56
:104BE80075110278101217A574061215861217BCD3
:104BF8007916850882850983124F901206A97408D0
:104C0800121551E9F50B7003024B331251F1801064
:104C18007C007D03850882850983124F9012030763
:104C2800A90B74020250ECE99400C365D03322EA60
:104C380028F8E43400F9E822E0F51075110078103E
:104C48002274EA12159274FC12153B8A0C8B0D8C97
:104C5800128D13EA2405F50AEB1251E57508007563
:104C68000900E50A2402F510E50B3400F511740279
:104C780012158685820E85830F780E1217A5850A70
:104C880082850B83A3A3A3A31257311217A5E50AA4
:104C98002405F50EE50B3400F50F780E1217A585DF
:104CA80010828511831251EB124F8A120583740604
:104CB8001215518A0E8B0FAE0EAF0FE50C2402F5BC
:104CC8000EE50D3400F50F80408882898374FFF06B
:104CD8000508124AE874FFF005089002E9E0F50CAF
:104CE800750D00780C1217A57CEA7D0285080C74F6
:104CF80002250CFA74033400FB120DFF740212151E
:104D0800519002E9E02508F508EE4F60718E828F18
:104D180083A3A3A3E0F9850E82850F83124F901217
:104D28000571E9F509EE2404124713E97044E4F526
:104D380014F51578141217A57514E9751502781469
:104D48001217A57514EA75150278141217A57408B8
:104D58001215861217BC7911EEFCEFFD850E8285BF
:104D68000F83124F901206A97408121551E9F5091C
:104D78006027850C82850D83124E711251FEE5085D
:104D88007003024E57124E7B850E82850F83124F99
:104D98009012030D7900024E6C850882AA82EA906F
:104DA80002E97009E02404900301F08022E0F89001
:104DB8000301E0F514E82404FCE43400FDEC651478
:104DC8007001ED70C0124C379412124C2F50B685FA
:104DD8000C82850D83E0C0E074022A124AEFD0E00D
:104DE800F00508850C82850D83A3E0C0E0124AE82F
:104DF800D0E0124E8D85820C85830D780C1217A594
:104E080074041215861217BC851082851183125AF4
:104E18005812058F74041215518A0C8B0DAE0CAF05
:104E28000D85080C7402250CF874033400F9EE4F54
:104E38007003024CD1851882851983E088828983A2
:104E4800124E8DA3E0C0E0124AE8D0E0024CDFE544
:104E580009700375090A850A82850B83124E71123F
:104E680051FEA9097404024AE0125A478512828544
:104E7800138322900301E0F5F0E50884900300F025
:104E88007C007D0322F00508851882851983227429
:104E9800EC12159274FE12153B8A088B098C0E8D44
:104EA8000FEA2405FEEB3400FF851882851983ACD0
:104EB80082AD838E828F83124F901205898A0A8B66
:104EC8000BEE2418124713EA450B7003024F6112C8
:104ED80050D35032851882851983124F9012069D3F
:104EE8008A108B11EA4511606B7912AC0AAD0B85FB
:104EF8000882850983124F908510828511831215C7
:104F080090E9F50A7058E4F50AF50B780A1217A526
:104F18008E828F83A3A3E0F50A780A1217A5EE24E0
:104F2800031251E2780A1217A58E828F83124F9AC4
:104F38001206AF7406121551E9F50A7021850C8224
:104F4800850D83E0701F850882850983124F9012B2
:104F580003138011750A0E8009750A018004E50A99
:104F680060031251F1850C82850D83E0600479009D
:104F78008002A90A74021215517F0C0216647C0083
:104F88007D03850A82850B83124F9422E0FAA3E001
:104F9800FB22E0FCA3E0FD850882850983124F947B
:104FA8002274EE12159274FE12153B8A088B098C36
:104FB8000C8D0DEA2405FEEB3400FF750E008518F4
:104FC80082851983AC82AD838E828F83124F9012B3
:104FD80005898A0A8B0BEA450B70030250BF1250F1
:104FE800D35035851882851983124F9012069D8AF1
:104FF8000E8B0FEA450F605E7912AC0AAD0B85087F
:1050080082850983124F90850E82850F8312159031
:10501800E9F50E60030250C28508828509831252A1
:10502800D9AA0AFB1206918A108B11A810A911E8B7
:1050380049701E7AFF7BFF1206918A108B11A81007
:10504800A911E849606C88828983E50AF0A3E50B19
:10505800F0750A008007750E0E805F050A9002E65B
:10506800E0FAE50AC39A504AE50A75F017A4FAABC4
:10507800F088828983A3A3E02AFAA3E03BFB8A8213
:105088008B831251EBEC4D70D2750A17750B0078B3
:105098000A1217A5EEFCEFFD120DFF74021215514E
:1050A800EEFCEFFD850882850983124F90120319E3
:1050B8008014750E098003750E01125A3F850C8203
:1050C800850D831251FEA90E024C2AE5082402F52B
:1050D80008E5093400F5098A828B83A3A3A3E0A21B
:1050E800E52274041215517F0A02166474EC121535
:1050F800928C108D11EA2405F50CEB124716750FEA
:1051080000EA2402F50AEB1251E5850A82F58312BA
:105118004F901206918A088B09EA450970030251DB
:10512800D7750E008071850C82850D83E06401704F
:105138004F8E828F83A3A31217BC8E828F83A3A363
:10514800A3A3E0F51275130078121217A5EE240533
:10515800F512EF3400F51378121217A5124F8A12C0
:1051680006AF7406121551E9F50F6014850C828597
:105178000D83E4F0125A3F8510828511831251FE87
:105188007C177D007900EEFAEFFB120E178E828FE6
:1051980083E4F0A3F0050E9002E6E0F8E50EC3986C
:1051A800501EE50E75F017A4F8A9F0850882850948
:1051B80083A3A3125BCC1251EBEC4D600302512E7A
:1051C80085088285098374FFF0A3F0E50F70061245
:1051D8004F8A12031FA90F024F81F50AEF3400F519
:1051E8000B22A3E0FCA3E0FD228E828F83125A4794
:1051F800850E82850F83E8F0A3E9F022C082C08380
:105208009002E2E06A7003A3E06B70067AE27B0228
:1052180080047A007B000244F1C082C08378008C4D
:10522800828D83E06A7003A3E06B7010E875F00369
:10523800A4F8A9F0EC28FAED39FB8015088C828DCA
:1052480083A3A3A3E06A7003A3E06B60DF7A007B0B
:10525800000244F174F612159212065B8A828B835F
:10526800E582458370067A007B008007A3A3A3A389
:10527800124F900258F074F2121592E9FE740E1251
:1052880015861252D974101215861257518C828DB8
:1052980083E064027036A3125A4DF50CA3E0F9A816
:1052A8000C74026870037429697021750C02750DFD
:1052B80000780C1217A578081217A5780A1217A5F6
:1052C800EEF91206D37406121551800279010259BB
:1052D80074E0F50AA3E0F50B2274E812159274FB4A
:1052E80012153BE9851882851983F08A168B17EC0D
:1052F800FEEDFF751000741D121586125A43741DB9
:105308001215861251FE8E828F83A3A3A3E0A2E416
:10531800502D741D121586124F9012069D8A828B8D
:1053280083E58245837003025722790AEEFCEFFD7C
:10533800AA16AB17121590E9F510600302572574E9
:105348001F12158612575174211215861252D974DC
:1053580023121586E0F50EA3E0F50F8E828F83E009
:10536800640260030256D0A3125A43850882850955
:1053780083A3858212858313EE240612471388823D
:105388008983E0FAA3E0F9EA2400F514E439F51575
:10539800781412182F010000280128C553070002AD
:1053A800288A540328F7530029C1550129EC5502CE
:1053B800298D550329C15504296B56D056E50E454C
:1053C8000F60030256CB850C82850D83125746FA6F
:1053D800E9FB8A828B83E0850A82850B8312577CDE
:1053E8001217A58A828B83A3E0FCA3E0025655E539
:1053F8000E450F60030256CB850A82850B83740124
:10540800F0125759850882850983F07C007D008E4B
:10541800828F83A3A3A3A3E02401FAA3E03400FBB3
:10542800120589EA4B60418A828B83E02402F88561
:105438000A82850B83E028F0EA2404F8EB3400F9AB
:1054480088828983E085128285138312578E1257CA
:105458007C1217A58A828B831251EAE5082403FA85
:10546800E5093400FB02565A850A82850B83E0243D
:1054780004F07C047D007900AA12AB13120E170207
:105488005725E50E450F60030256CB125759FEA368
:10549800E0FF850A82850B837404F0EE8508828517
:1054A8000983F0EF851282851383F0740312158641
:1054B800AC82AD83EEFAEFFB1205898A0C8B0DEAFC
:1054C800450D700302556E8A828B83A3A312439CF9
:1054D800740112158685820E85830F780E1217A522
:1054E80074051215861217BC7CFF7DFF12058F7498
:1054F800041215518B0FEA450F7033850C82850D08
:10550800831257311217A5850C82850D83A31217B4
:10551800BC7C027D007A267B811203BB74041215C1
:1055280051E9700A740112158674FFF0A3F08E8297
:105538008F83E064027039750C02750D00780C12C7
:1055480017A58E828F831251EAE5082404FAE5092B
:105558003400FB120DFF7402121551850A82850B67
:1055680083E0240280097401121586EEF0A3EFF09F
:105578007401121586125742F07401121586A3128F
:10558800573A0256C5E50E450F60030256CB850C07
:1055980082850D831251EBAA16AB171206C7850A2E
:1055A80082850B837402F0EA850882850983F08579
:1055B8001282851383EB0256C8E50E450F6003027D
:1055C80056CB125759F8A3E0F9850A82850B8374E4
:1055D80002F0E8850882850983F0E985128285133F
:1055E800830256C8850C82850D83124F90120DF9DF
:1055F800EAFC8C82A882C3950EE4950F405FE865AB
:105608000E7002E50F70047C0080228518828519CF
:1056180083E0FAE50E2AFAE50F3400FBC3EA98EBBB
:1056280094005003E08005E50ECCC39CFCEC850A91
:1056380082850B83F08C0A750B00780A1217A585F2
:105648000C82850D83E0250EFCA3E0350FFDAA082A
:10565800AB09120DFF740212155102572575100778
:10566800025725E50E450F705A850C82850D831269
:105678005A43850A82850B8374071243A812573A46
:105688001243A8A3E0851282851383F0E82402FA66
:10569800E93400FB8A828B8312573A1257691257F2
:1056A80042A312577212574BF0E82405F8E9340068
:1056B800F98882898312574BA312578EA3A3A3A3F9
:1056C800F0805A75100B8055741D121586124F9074
:1056D80012065B8A828B83E5824583603D125A43BA
:1056E800880C890DE8450D6031780E1217A5780AE7
:1056F8001217A578081217A57406121586E0F9EE98
:10570800FCEFFDAA16AB17850C82850D8312159048
:105718007406121551E9F510800375100EA910745E
:10572800051215517F10021664E0F50E750F00780A
:105738000E22E08508828509832212579822125A80
:1057480047E822125798A3A322E0F508A3E0F50939
:1057580022850C82850D83E0F8A3E0F5838882E03A
:1057680022A3A3F08A828B83A322F088828983A351
:10577800A3A3A322F08A828B8312578522E0F50A1D
:10578800750B00780A22F088828983A31257982221
:10579800E0850882850983A3A32274EE121592740A
:1057A800FE12153B8A0A8B0BECFAEDFB74141215EA
:1057B80086E0F510A3E0F5117416121586E0FE7464
:1057C80018121586E0F50EA3E0F50F8518828519E5
:1057D80083AC82AD831205898A0C8B0DEA450D6076
:1057E80049851882851983124F9012065B8A828B2D
:1057F80083E5824583602FA3A3125751E508450925
:105808006024780E1217A578101217A5EEF9AC0CC3
:10581800AD0DAA0AAB0B8508828509831215907411
:10582800041215518006790E80027901024C2A74FF
:10583800F612159274FE12153B740C121586125747
:1058480046851882851983F07401121586E9F0E4FB
:10585800F508F50978081217A575080278081217CF
:10586800A57404121586858208858309780812179D
:10587800A51206AF740612155174021215518068EC
:1058880074F7121592EAFEEBFF89087C197D031262
:1058980006C7EA5402600BA908EEFAEFFB12057D71
:1058A800800279010242A474F612159274FF6A709C
:1058B8000374FF6B70168C828D831258F5E4F08C9C
:1058C800828D83A3A3A31258F5A380181206978A82
:1058D800088B09A808A909E849600D88828983749A
:1058E800FF1243A6A3A3E4F07F0202166474FFF03C
:1058F800A3F08C828D83A3A32274F612159212064C
:10590800978A828B83E58245836006A3A3E0FA80A9
:10591800027A007B0080D174F21215928A088B09F2
:10592800ECFEEDFF740E121586E0F50A1206978A52
:105938000C8B0DA80CA90DE8497026EEFCEFFD7A3A
:10594800FF7BFF1206978A0C8B0DA80CA90DE8495E
:1059580070047911801688828983E508F0A3E50927
:10596800F088828983A3A3E50AF079007F060216EE
:105978006474EE121592EAFEEBFF8C088D09890C0F
:105988007414121586125A437416121586124F9003
:10599800750D00E8496003025A377402650C60030C
:1059A800025A327412121586125A4DFCA3E0F9EC11
:1059B8002400F50EE439F50FEAF4F8EBF4F9EC58A5
:1059C800F8E50F59F9E849705CE5082406F8ED3464
:1059D80000F9880A890B8882F583125A581206C77B
:1059E8008A108B11E50E65107004E50F6511604291
:1059F800780E1217A5850A82850B83125A5812064B
:105A0800CD7402121551E9F50D7027780E1217A5FD
:105A1800850882850983A3A3125A561206E57402E3
:105A2800121551800D750D808008750D0D80037558
:105A38000D0BA90D0250EF8E828F83125A4722E078
:105A4800F8A3E0F922125A4788828983E022A3A3A7
:105A5800E0FCA3E0FDEEFAEFFB2274E81215927465
:105A6800E712153B851882851983EAF0A3EBF08CC1
:105A7800168D17890E750800750900743112158680
:105A8800E0F512A3E0F5137433121586E0F514A3BC
:105A9800E0F5157435121586E0F50FE50975F00384
:105AA800A4F8A9F0851882851983125BCCE0F470FC
:105AB80003A3E0F47003025BAFEE2402F50CEF12CF
:105AC8005BC2E07003025BAF85160A85170B780A84
:105AD8001217A5AC14AD15AA12AB1312064F740217
:105AE8001215518A0A8B0BEA450B7003025BAFE46F
:105AF800F510F51178101217A5740612158685820F
:105B08001085831178101217A574091215868582DD
:105B18001085831178101217A5851282851383A327
:105B2800A3A3A31217BC7914AC0AAD0B8E828F8382
:105B3800124F901206A97408121551E97069850A66
