:020000040000FA
:0600000002010A021FE3E9
:03002B000224228A
:0300530002205632
:03006B000223F17C
:10008300021E4FE5C754F84401F5C7790122000069
:100093000080FB120086B900030200F4E4792178A2
:1000A30008B800028004F709D8FCE479297802B87B
:1000B30000028004F709D8FCE490028178A879074C
:1000C3008002F0A3D8FCD9FA900928AA82AB8390C6
:1000D300013A78A479028015E493A3AC82AD838AB4
:1000E300828B83F0A3AA82AB838C828D83D8E9D9D8
:1000F300E77582937583B4740312011C758291753D
:100103008300740012011C75D00075813F7518813E
:10011300751902759F00020096C09FF59FE473D086
:100123009F22D083D082C09FE493C0E0740193C028
:10013300E0740293F59F22FF0000B400002800281A
:1001430000283075A000A000A000A000000800084F
:10015300E001F0001000100010001000100010006B
:1001630050005000500010001000D00700000000A5
:1001730000000F00010005003075070010000100AA
:1001830081FF00000000FFD504F304DB04FF02023B
:100193000208025000A0000000E8030212810100DF
:1001A3000002810210810100007F09021881010011
:1001B30000B3020210810100008009020E810100D8
:1001C30000C90202108101000081090208810100B7
:1001D30000CB020210810100008209020A8108009B
:1001E30000CC020210810100008309020C8101008E
:1001F300008409FF0100FF20021281010000058134
:10020300021081010000E809021A810000000000C9
:100213000224810300001903870A870A870A870AD1
:10022300870A870A870A870A870A870A870A870A43
:10023300870A090D210D030DFFFF01E803053F1098
:100243000AFF0001307503020106000000000000F0
:10025300000000000000000000000000000000009B
:10026300000000000000FFFF0600800CE8030A0204
:1002730002021281010000B1800210810100005FBF
:100283000A021E810300001B0902108101000060A5
:100293000A0220810100001C090210810100006193
:1002A3000A0222810100001E090000000000000074
:1002B300000000000000000000080954454D5030C4
:1002C30030360201060702A084424C4520544D50AB
:1002D30030303600BF110000C511120125D3A5032C
:1002E300120125EAA5031201251BA60312012556B7
:1002F300A60312012580A603120125AAA603120153
:1003030025C1A603120125D8A603120125EFA603D2
:1003130012012518A7031201252BA703120125415A
:10032300A7031201256BA7031201256DBE0212015B
:100333002571BF02120125A9BF02120125CCBF02FC
:10034300120125D7BF02120125FABF0212012509A6
:10035300C102120125DEC10212012559C202120196
:1003630025E1C2021201251CC30212012553C30257
:10037300120125E1C302120125BAC4021201251A92
:10038300C50212012525C502120125A4C5021201C9
:1003930025A7C502120125AAC50212012539C602E5
:1003A3001201253CC6021201256CC60212012596D4
:1003B300C60212012584C70212012536C8021201A2
:1003C300256FEC0212012597EC02120125C5EC0200
:1003D300120125FCEC021201255AED02120125A59A
:1003E300ED02120125F0ED0212012530EE02120199
:1003F3002576EE02120125A4EE0212012561EF0219
:100403001201256BEF0212012578EF02120125ABD1
:10041300EF0212012577F00212012583F002120187
:10042300259BF002120125A5F002120125BFB0039E
:10043300120125CDB003120125E5B003120125FDFC
:10044300B0031201253BDC01120125E7DC01120197
:100453002562DD0112012583DE01120125BFDE01C4
:1004630012012568DF011201254FE001120125B3B6
:10047300E1011201250AE2011201258BE2011201B9
:10048300257BE301120125C8E3011201254EE40196
:1004930012012580E40112012594E601120125D6FB
:1004A300E601120125F4E60112012577E7011201A5
:1004B300254BE80112012513E90112012525E0026C
:1004C300120125F8E002120125A1E102120125F42F
:1004D300E102120125A4E20212012530E302120116
:1004E300251CE4021201254BE4021201255EE502FC
:1004F300120125A6E5021201257BE602120125B7AA
:10050300E602120125D3E6021201258DB30312017F
:1005130025AD8803120125C38803120125E9880349
:10052300120125058A031201250F8A0312012544AE
:100533008B031201253C8C0312012548E7021201AB
:100543002578E802120125ABE802120125F5E8023D
:10055300120125BCEA0212012561BD01120125CB5E
:10056300BD011201252ABF011201253ABF01120163
:100573002567BF01120125BEBF0112012567C00116
:100583001201256EC10112012538C20112012598FD
:10059300C301120125DBC30112012580C40112012D
:1005A30025A6C401120125B4C601120125B9C6014D
:1005B300120125BEC8011201250BC9011201257EB6
:1005C300C901120125B1C90112012553CA01120142
:1005D30025FCCA0112012534CB0112012537CB01B9
:1005E3001201257FCB01120125BFCB011201251674
:1005F300CC01120125F69B031201250E9C03120167
:1006030025569C031201256C9C03120125B39C0300
:10061300120125C79D03120125549E031201259F34
:100623009E031201254242001201254E420012018F
:1006330025894200120125CE42001201258E430076
:1006430012012514440012012540440012012579AA
:100653004400120125B746001201259B48001201F0
:1006630025814A00120125C44B00120125124E00B8
:10067300120125244F001201256F50001201257F1E
:1006830051001201259C5100120125D7510012017E
:1006930025F951001201255C52001201251D570056
:1006A300120125B257001201250358001201252A11
:1006B30058001201257C58001201259A5800120196
:1006C30025F45800120125F35900120125775A0029
:1006D300120125CBF502120125D5F50212012518C9
:1006E300F60212012533F602120125C3F6021201A6
:1006F30025EBF60212012528F7021201255FF70206
:1007030012012588F702120125FDF70212012512B5
:10071300F80212012527F80212012558F8021201E6
:10072300256CF80212012591F802120125CBF8027B
:10073300120125F7F8021201257AF902120125C3E5
:10074300F902120125EDF90212012518FA0212012C
:1007530025A1AE03120125039C02120125319C023F
:100763001201257F9D021201255F9E021201257E43
:100773009E02120125FB9E021201253E9F021201D9
:100783002594A00212012555A102120125DCA30222
:100793001201257DA40212012573A5021201257001
:1007A300A602120125CAA70212012555A8021201A9
:1007B300251BAC0312012584AC03120125D8AC031D
:1007C300120125FFAC0312012530AD0312012540B0
:1007D300FA02120125ADFA02120125F4FA021201FE
:1007E300250CFC0212012508FD02120125EBFD0276
:1007F300120125A7C802120125E9C802120125BB6F
:10080300C90212012594CA021201258ECB021201DC
:100813002570CC02120125D9CC021201258FCD02FD
:1008230012012503CE021201256FCE021201259873
:10083300CE0212012512CF02120125ABCF02120103
:100843002510D00212012525D0021201256BD002FA
:1008530012012584D002120125E9D002120125ECF0
:10086300D002120125209603120125489603120196
:1008730025869603120125449703120125AB97039E
:10088300120125C79703120125EF97031201251FB4
:1008930098031201252E9803120125AB9803120128
:1008A30025D1980312012503CD01120125E1CE01C3
:1008B30012012513D1011201254FD1011201257C0B
:1008C300D10112012566D201120125B1D201120113
:1008D30025FCD2011201250ED3011201254ED301AD
:1008E30012012583D301120125D1D3011201250061
:1008F300D40112012523D40112012570D401120160
:1009030025F5D4011201250FD7011201254ED90176
:100913001201258FD90112012531DB011201257244
:10092300DB01120125E5DB01120125B97200120179
:1009330025B77300120125507A00120125717C003E
:100943001201253C7E00120125A47F00120125DE41
:100953005A001201258D5B00120125D35B001201A1
:1009630025135D00120125A95E00120125235F00F6
:100973001201253E5F00120125B95F001201251304
:1009830061001201257362001201257963001201CF
:1009930025DA6400120125F3640012012551650074
:1009A3001201253F6600120125726600120125E23D
:1009B30066001201255C6700120125A6670012017B
:1009C30025706800120125456900120125246A007B
:1009D300120125AF6A001201251D6B00120125913A
:1009E3006B00120125BC6B001201257B6C00120108
:1009F30025E06D00120125FD6D001201251C6E001E
:100A03001201250D6F00120125326F001201255CC2
:100A13006F00120125D76F001201253170001201FA
:100A2300259A71001201254872001201258972006E
:100A33001201252F8E021201257D8E0212012589B6
:100A43008E02120125678F02120125988F0212016F
:100A530025C98F02120125499002120125819002B6
:100A6300120125D390021201251091021201252DA6
:100A730093021201255395021201253E970212019A
:100A830025289902120125FA7F00120125389601C3
:100A9300120125689601120125419D01120125C607
:100AA3009E01120125C3A401120125ABA501120168
:100AB30025E8A5011201250BA6011201253CA6017B
:100AC30012012545A6011201254FA6011201253D5C
:100AD300A70112012533A801120125298101120161
:100AE300252885011201252E8501120125698C0116
:100AF300120125829101120125B38F03120125AD45
:100B030090031201252191031201255F9103120124
:100B130025D391031201254C92031201255592030B
:100B2300120125619203120125769203120125B465
:100B33009203120125CA9203120125608403120154
:100B4300256D8403120125878403120125C68403BE
:100B53001201250485031201256985031201257EEF
:100B63008503120125898503120125968503120148
:100B730025AD8503120125BB8503120125C6850317
:100B8300120125D28503120125E18503120125EC0B
:100B930085031201250F8603120125B68603120170
:100BA30025C68603120125E08603120125FD86036F
:100BB3001201251987031201253E870312012549D6
:100BC30087031201255E8703120125728703120131
:100BD30025D38703120125D98703120125DF870354
:100BE300120125E58703120125FD87031201253034
:100BF3008803120125058002120125898002120152
:100C030025388102120125978202120125B8840238
:100C1300120125A48502120125D98502120125FBA3
:100C23008502120125AA8602120125A28802120159
:100C330025CB88021201255D89021201258F8902C5
:100C43001201259C8902120125F38902120125193B
:100C53008A02120125868C02120125898D02120156
:100C630025E18D021201252CEB0112012536EC0141
:100C73001201251DED0112012527ED011201254960
:100C8300ED0112012555ED01120125EEEE011201D0
:100C9300251DEF0112012539F00112012592F00102
:100CA300120125F8F101120125D7F20112012533B2
:100CB300F301120125A0F301120125DBF301120157
:100CC300251AF401120125D3F601120125EDF601CF
:100CD30012012579F70112012587F701120125E099
:100CE300F701120125EEF70112012561F801120146
:100CF30025C5F8011201250FF901120125D6A80215
:100D0300120125F8A8021201251EAB021201253398
:100D1300AE021201254BAF02120125FEAF021201F2
:100D230025E0B0021201257DA703120125A2A70326
:100D330012012514A803120125ABD802120125B410
:100D4300D802120125BDD80212012594D90212013D
:100D53002545DB021201257BDB02120125B5DB02EF
:100D6300120125EBDB0212012525DC0212012559B4
:100D7300DC0212012585DC02120125CEDC02120100
:100D83002508DD0212012551DD02120125A9DD022C
:100D9300120125DEDD0212012539DE02120125735F
:100DA300DE02120125C4DE02120125FADE0212015F
:100DB3002534DF0212012562DF0212012585DF02DD
:100DC30012012555FF0112012581FF01120125DCC6
:100DD300FF01120125E6FF01120125F6FF011201B1
:100DE3002510D10212012525D1021201257DD10240
:100DF300120125E4D1021201252CD202120125A2EF
:100E0300D202120125D1D202120125DFD202120130
:100E13002543D30212012581D3021201259CD3025B
:100E230012012534D402120125DDD40212012560FA
:100E3300D50212012599D50212012524D6021201E9
:100E4300257BD602120125DAD602120125ECD60241
:100E530012012512D7021201251BD7021201257494
:100E6300D802120125ADFE021201258CFF021201E8
:100E73002572A103120125B7A103120125FDA103C8
:100E830012012590A30312012511B4031201252C8D
:100E9300B4031201253CB40312012560B20312010D
:100EA3002598F901120125B8F901120125BCFA01AF
:100EB30012012508FB0112012528FB011201257BE4
:100EC300FB01120125E8FB011201252EFC01120191
:100ED3002592FC0112012544FF01120125BDAA033D
:100EE30012012508AB0312012538AB031201255863
:100EF300AB03120125B2AB0312012503B3031201A5
:100F0300255024001201255E27001201251E290009
:100F1300120125C929001201256D2A001201250697
:100F23002B00120125352B00120125F42F0012018D
:100F3300259F30001201250F320012012577320060
:100F43001201252B3300120125ED35001201252C4A
:100F53003600120125A03600120125FF36001201CA
:100F6300255E3700120125CD3700120125C0380058
:100F73001201250639001201254B39001201256E95
:100F83003900120125E93A00120125FC3A00120149
:100F930025053C00120125443C00120125703C004C
:100FA300120125C33C00120125E43C00120125284F
:100FB3003D001201257A3F00120125BB3F001201BB
:100FC30025664000120125D140001201250E420082
:100FD300120125C99E0312012564A10312012506EE
:100FE300B50312012596B103120125A6B10312011F
:100FF30025BDB1031201255DB20312012519990321
:10100300120125BF9903120125DB9B0312012576EB
:10101300AD03120125A8AD0312012508AE03120189
:101023002564AE031201250080031201251E8003EF
:10103300120125B38003120125A3810312012500A8
:101043008403120125D4A3031201253DA403120135
:1010530025FBA4031201257AA503120125FA9203A5
:101063001201252C930312012534940312012559EF
:10107300950312012504B402120125EAB4021201F8
:101083002537B5021201257AB502120125EFB50203
:1010930012012550B602120125C5B602120125A17F
:1010A300B702120125ACB8021201252DB9021201B3
:1010B30025D4BA021201256ABB02120125DDBB0247
:1010C30012012559BC0212012570BC02120125A789
:1010D300BD0212012501BE021201254BAA01120114
:1010E30025E3AE01120125B7B101120125E0B101DB
:1010F30012012509B201120125BBB201120125A17A
:10110300B401120125DCB50112012512BB01120144
:10111300254BBB011201258FBB01120125A1BC0187
:10112300120125468C03120125858C03120125A289
:101133008C03120125438D03120125918E031201A5
:101143002522A9031201257BA90312012593A903D3
:10115300120125AFA903120125C4A903120125EB2E
:10116300A9031201251CAA0312012541AA03120196
:10117300257BAA0312012594AA03120125AFAA0312
:10118300120125BAAF03120125CDAF03120125E4E5
:10119300AF0312012512B00312012531B00312016E
:1011A3002568B0031201252CF102120125F6F20283
:1011B300120125AEF402120125D9F4021201253ED3
:1011C300F50212012563F502120125CE7F001201FB
:1011D30025E8B403E066701008A3E066700A08A36C
:1011E300E066700408A3E06622C3E7960809E79661
:1011F3000809E7960809E79622C3E09608A3E09654
:1012030008A3E09608A3E09622C008C3E096F50879
:1012130008A3E096420808A3E096420808A3E096D4
:1012230045087001D3D00822080808EAC0E0EBC0E3
:10123300E086F0E7A4FA180986F0E7A42AFA180969
:1012430086F0E7A42AFA180986F0E7A42AFA198691
:10125300F0E7A4FBE5F02AFA190886F0E7A42BFBD4
:10126300E5F03AFA190886F0E7A42BFBE5F03AFA21
:1012730018180986F0E7A4C5F02BFBE43AFA19081D
:10128300E7C5F0C6A426F6E5F03BFBE43AFA188678
:10129300F0E7A4F6E5F00826F6E43B08F6E43A089E
:1012A300F6D0E0FBD0E0FA22E4CFC0E0E4CEC0E029
:1012B300E4CDC0E0E4CCC0E075F020C3E633F6082B
:1012C300E633F608E633F608E633F6181818EC3377
:1012D300FCED33FDEE33FEEF33FFC3EC9709ED97DF
:1012E30009EE9709EF97191919400FFFEC97FC09BD
:1012F300ED97FD09EE97FE191906D5F0BEECF70937
:10130300EDF709EEF709EFF7191919D0E0FCD0E072
:10131300FDD0E0FED0E0FF226016080808C6C31324
:10132300C618C613C618C613C618C613C6D5E0EA30
:10133300227009080808226016181818C6C333C695
:1013430008C633C608C633C608C633C6D5E0EA2284
:10135300E627F60809E637F60809E637F60809E648
:1013630037F622E026F608A3E036F608A3E036F6C1
:1013730008A3E036F622E026F008A3E036F008A33F
:10138300E036F008A3E036F022C3E697F60809E654
:1013930097F60809E697F60809E697F622C3E0965A
:1013A300F008A3E096F008A3E096F008A3E096F017
:1013B30022E657F60809E657F60809E657F608093C
:1013C300E657F622E056F608A3E056F608A3E056E1
:1013D300F608A3E056F622E056F008A3E056F0081C
:1013E300A3E056F008A3E056F022E0F608A3E0F6E7
:1013F30008A3E0F608A3E0F622E6F008A3E6F00867
:10140300A3E6F008A3E6F022E0FAA3E0FBA3E0FCE6
:10141300A3E0FD22EAF0A3EBF0A3ECF0A3EDF022AE
:10142300CAC0E0E6F0A308DAFAD0E0FA22CAC0E0C4
:10143300E0A3C582CCC582C583CDC583F0A3C58295
:10144300CCC582C583CDC583DAE6D0E0CA22C3E426
:1014530098F8E499F91214928026C3E49AFAE49B6B
:10146300FBE920E7E9121492E498F8E499F922C31E
:10147300E498F8E499F9121492E498F8E499F9C31A
:10148300E49AFAE49BFB22EB20E7CFE920E7E0B9FB
:101493000010BB0008E88AF084F8AAF022E4FBC835
:1014A300FA22EB70227B10C833C8C933C933500703
:1014B300C39AC3DBF280069A50012ADBEAC833F4ED
:1014C300C8C933F4C9FA2275F008E4C833C8C9336C
:1014D300C933C99AC99B5004C92AC93BD5F0ECFB4F
:1014E300C833F4C8E4C9FA22600D08C6A2E713C6DC
:1014F30018C613C6D5E0F322600C08C6C313C6187A
:10150300C613C6D5E0F422700422600D18C6C33397
:10151300C608C633C6D5E0F41822251810AF08F55F
:1015230018400215198008F51840021519D2AF2288
:10153300C0D0251810AF08F518500205198008F51A
:101543001850020519D2AFD0D0222518F58210AF5A
:1015530008F518400215198008F51840021519D22C
:10156300AF851983222518F582E43519F58322E422
:10157300732518C582C0E0E51934FFC583C0E0E5D3
:1015830018C3958224F810AF0885831985821880C3
:1015930008858319858218D2AFCEF0A3E520F0A386
:1015A3007808E608F0A3DEFAEFF0A3E58124FAF861
:1015B300E608F0A3E608F0A3E608F0A30808E608A7
:1015C300F0A3E608F0A315811581D0E0FED0E0F882
:1015D300158115811581E8C0E0EEC0E0222518C50C
:1015E30082C0E0E51934FFC583C0E0E518C39582E6
:1015F30024F910AF0885831985821880088583191B
:10160300858218D2AFCEF0A3E520F0A37808E608D0
:10161300F0A3DEFAEFF0A3E58124FBF8E608F0A3DC
:10162300E608F0A30808E608F0A3E608F0A315818E
:101633001581D0E0FED0E0F815811581E8C0E0EE19
:10164300C0E022851983851882E0A3FEE0A3F5207C
:101653007808E0A3F608DFFAE0A3FFE0A3C0E0E028
:10166300A3C0E0E0A3C0E0E0A3C0E0E0A3C0E010BB
:10167300AF088582188583198008858218858319A8
:10168300D2AFD083D082020122851983851882E0EC
:10169300A3FEE0A3F5207808E0A3F608DFFAE0A3B1
:1016A300FFE0A3C0E0E0A3C0E0E0A3C0E0E0A3C08C
:1016B300E010AF0885821885831980088582188514
:1016C3008319D2AFD083D08222C0D02518C582C05F
:1016D300E0E51934FFC583C0E0E518C3958224F320
:1016E30010AF088583198582188008858319858240
:1016F30018D2AFC8F0A3E9F0A3EAF0A3EBF0A37903
:1017030008E709F0A3D8FAECF0A3EDF0A3EEF0A3F9
:10171300EFF0A3D0E0F0A3D0E0F0A3D0E0F0A3E596
:1017230020F0A3E5F0F0A322851983851882E0C099
:10173300E0A3E0F9A3E0FAA3E0FBA37808E0F6084E
:10174300A3DFFAE0FCA3E0FDA3E0FEA3E0FFA3E038
:10175300C0E0A3E0C0E0A3E0F5D0A3E0F520A3E060
:10176300A3F5F010AF088583198582188008858357
:1017730019858218D2AFD082D083D0E0F8D0E0327E
:1017830074048006740280027401C0E0F40412152C
:101793004DD0E0121423227404800474028000CC20
:1017A300C0E0EDC0E0E518C39CCCAD1950011D109D
:1017B300AF068C188D1980068C188D19D2AF1214B0
:1017C30030D0E0FDD0E0FC22D083D082E9C0E0E459
:1017D30093A3C386F0C5F095F0F908E493A386F0CC
:1017E300C5F095F0700BE493A3C3994005E9048019
:1017F30002A3E475F002A42582F582E5F03583F5B2
:1018030083D0E0F9E493A3C0E0E493C0E022D08363
:10181300D082ECC0E0EDC0E0E493A3FCE493A3FD2D
:10182300ED4C600D12185DEC24FFFCED34FFFD80E0
:10183300EFE493A3FCE493A3FDED4C600D12189C1D
:10184300EC24FFFCED34FFFD80EFD0E0FDD0E0FCA5
:10185300E493A3C0E0E493C0E022C0E0C3E4939622
:10186300087401939618400FE49366700808740196
:1018730093661870007019A3A3C3E49396087401C8
:10188300939618A3A3400DD0E0D0E0D0E002184D0A
:10189300A3A3A3A3A3A3D0E022C0E0C0F088F0E4F5
:1018A300936670080874019366187000A8F0A3A3E8
:1018B300700BD0F0D0E0D0E0D0E002184DA3A3D05D
:0418C300F0D0E0225F
:1018C80074F51215E0EAFEEBFFEE2434F8EF34006D
:1018D800F988088909EE2435F582EF3400F583E0AC
:1018E800F8EE2437F582EF3400F583E0F50AEC854D
:1018F8000AF0A4FCAAF0850AF0EDA42AFDE82CF869
:10190800E43DF97A257B00121492EA85088285095C
:1019180083F0F8740758F97401B900028004C333DE
:10192800D9FCFAE8131313541FF8EE28F8EF340023
:10193800F9E8245DF582E93400F583E05A6008EEA1
:101948002434F582EF802CEE2434F582EF3400F550
:1019580083E0C0E0EE2436F582EF3400F583E0F54D
:10196800F0D0E084A8F0EE28F8EF3400F9E8243845
:10197800F582E93400F583E0F97F0402168C74F5EA
:101988001215E0EAFEEBFFEE2434F582EF3400F5A1
:1019980083E0C0E0EE2435F582EF3400F583D0E033
:1019A800F08E828F83A3A3A3A3A3A3A3C082C08323
:1019B8008E828F83A3A3A3A3A3E0F8A3E0F9D08327
:1019C800D082E0C398F508A3E099F509EE247FF5E5
:1019D80082EF3400F583E064017069EE2480F582BB
:1019E800EF3400F583E0F8A3E0F98E828F83A3A398
:1019F800A3A3A3A3A3E0FCA3E0FD8E828F83A3A3EC
:101A0800A3A3A3E0FAA3E0FBC3EA9CEB9D5010C399
:101A1800EC98ED99402EC3EA98EB995027800EC3B5
:101A2800EA98EB994007C3EC98ED9940177CDC7D68
:101A380004EEFAEFFB1209E5EE247FF582EF34009D
:101A4800F583E4F0EE2434F8EF3400F9E8FCE9FD1E
:101A5800EE2435F582EF3400F583E0F8EE2437F50F
:101A680082EF3400F583E0F50AE508850AF0A4F56D
:101A780008AAF0850AF0E509A42AF509E82508F876
:101A8800E43509F97A257B00121492EA8C828D8359
:101A9800F0F8740758F97401B900028004C333D907
:101AA800FCFAE8131313541FF8EE28F8EF3400F982
:101AB800E8245DF582E93400F583E05A6008EE24F5
:101AC80034F582EF802CEE2434F582EF3400F58370
:101AD800E0C0E0EE2436F582EF3400F583E0F5F05F
:101AE800D0E084A8F0EE28F8EF3400F9E82438F5BF
:101AF80082E93400F583E0F91223DD021981C082FE
:101B0800C083851882851983E0F8A3E0F9C3EA9CAD
:101B1800EB9D5010C3EC98ED99401BC3EA98EB99E4
:101B28005014800EC3EA98EB994007C3EC98ED99DE
:101B38004004790180027900D083D08222EAC39CD4
:101B4800FAEB9DFB2274EF1215E09003A2E0640803
:101B58006005E06407702A9061C8E060249003D0B3
:101B6800E0F4601DE0F875F003A4C8AAF02AF9743F
:101B7800D228FE740339FF8E828F83A3A3A3E0705B
:101B880003021C7D906060E0C0E0EE2468F582EFFF
:101B98003400F583D0E0F0750C45750D0575080027
:101BA800750900E5D914F50AE5D95403F50E60174F
:101BB8007403650E605CE50A6010EE2467F582EF39
:101BC8003400F583E07003021C62900540E0640174
:101BD800602AEE2482F582EF3400F583E060047811
:101BE8000480027800850A08E508C398FA95E0FBA6
:101BF8001208B98A088B09EA45097005120BD780C3
:101C080074EE2482F582EF3400F583E070048A0CC8
:101C18008B0DE50A6012850C82850D83F50BE5D9DD
:101C2800F0A3150BE50B70F6EE2482F582EF340075
:101C3800F583E0604474FC250AF50A780C121787CE
:101C4800AC0AA90EEEFAEFFB120A817402121533E0
:101C5800E97026AA08AB0912104B793D8E828F8352
:101C6800A3A3A3A3E0FA7B0012078DEEFAEFFB1201
:101C780009FD120A93790080747403650E60568515
:101C88000A107511007810121787AC0CAD0DAA0850
:101C9800AB09120A5D7402121533EE2468F582EF5F
:101CA8003400F583E064807004747F8001E0F50CF3
:101CB800780C12178BE50EF50C780C12178BA90A05
:101CC800AC08AD099003D0E0FA7B0012075174020A
:101CD80012153380139003A2E06408600BAC0CADBE
:101CE8000DEEFAEFFB120AED120BE379017F0A02FF
:101CF800168C74F51215E074FC12151DEAFEEBFF44
:101D08008908A2AFE433F509C2AF806AEE2463F80C
:101D1800EF3400F97A007B00A2AFE433F50AC2AFD2
:101D280088828983E0FCA3E0FDEC4D603A888289D3
:101D380083E0FAA3E0FB8A828B83E0FCA3E0FD88C2
:101D4800828983ECF0A3EDF08A828B83E4F0A3F020
:101D580088828983E0FCA3E0FDEC4D700A888289C3
:101D680083A3A3E4F0A3F0E50AA2E092AF12104B1C
:101D78009004E3E004F0EE2463F582EF3400F58389
:101D8800E0F8A3E0F9E849603DEE2463F582EF341A
:101D980000F583E02402FAA3E03400FBEA2402F50C
:101DA8000AEB3400F50B780A1217878A828B83E0D6
:101DB800FCA3E0F9EEFAEFFB120A217402121533C4
:101DC800E97003021D149004E3E060639004E4E00A
:101DD800F89004E3E0C398500C74026508705090C2
:101DE80004E5E0604A8E828F83A3A3A3A3E085184D
:101DF80082851983F0A3E4F09004E3E0F8740212FA
:101E08001568E8F0A3E4F09004E3E0F89004E2E059
:101E180028F07402121568AC82AD83851882851982
:101E280083AA82AB83790112075D9004E3E4F0E5AD
:101E380009A2E092AF740412153302198100000060
:101E48008521878522C622C0E0C0D0E8C0E0E9C06D
:101E5800E0EAC0E0EBC0E0ECC0E0EDC0E0EEC0E0DE
:101E6800C008C009C00AC00BC082C083C0F0A2AFBE
:101E7800E433FEC2AF759B00906182E0A2E050128D
:101E8800E591A2E0500C7591FE7401652170031272
:101E98001B4DE0A2E55051E591A2E5504B7591DF4D
:101EA8009003A2E064076005E0640870237401658C
:101EB80021703579019003D0E0FA75F003A4CAA81F
:101EC800F028FB74D22AFA74033BFB121CFA801820
:101ED800E0640D70139003C4E004F064287002E419
:101EE800F07A00E0F9120BE9906182E0A2E6400383
:101EF800021F96E591A2E64003021F967591BF90D6
:101F080003A2E064057008120B17120B238003125A
:101F18000B1D752100120B77E99003A3F0790012CD
:101F28000B6B12095B7A017B009003A1E0F9120E9A
:101F38003B907803E064427055900544E014F070DB
:101F48004DC2AF121F4E00782AD0E0F618D0E0F646
:101F5800E59F540770057509FF800375097FC4C0A4
:101F6800E07829E6F50808E65509F509740B7808BC
:101F78001214FBD0E02508F8906270E0A2E740F860
:101F8800E8C333906272F0906270E0D2E0F0906142
:101F980081E0A2E35009E5E9A2E3500375E9F7A35C
:101FA800E0A2E75009E591A2E7500375917FEEA200
:101FB800E092AFD0F0D083D082D00BD00AD009D035
:101FC80008D0E0FED0E0FDD0E0FCD0E0FBD0E0FAA5
:101FD800D0E0F9D0E0F8D0D0D0E032C0E0C0D0C036
:101FE80082C083906183E0A2E05009E5BFA2E0507F
:101FF8000375BFFEE0A2E15009E5BFA2E1500375F9
:10200800BFFDE0A2E25009E5BFA2E2500375BFFBA5
:10201800E0A2E35009E5BFA2E3500375BFF7E0A2D1
:10202800E45009E5BFA2E4500375BFEFE0A2E55014
:1020380009E5BFA2E5500375BFDFE0A2E65009E558
:10204800BFA2E6500375BFBFD083D0828088C0E0AE
:10205800C0D0E8C0E0E9C0E0EAC0E0EBC0E0ECC016
:10206800E0EDC0E0C0F0E5A7A2E6500FE5A1A2E6CA
:10207800500953A7BF75A1BF1220BBE5A7A2E55021
:102088000CE5A1A2E5500653A7DF75A1DFE5A7A2DD
:10209800E15009E5A1A2E1500375A1FDE5A7A2E27F
:1020A800500CE5A1A2E2500653A7FB75A1FBD0F0A6
:1020B800021FCC74F81215E07521019003A2E064A8
:1020C800067015120AB18A828B83A3A3A3A3A3A3C4
:1020D800E0FAA3E0FB120B05A2AFE433FED2AF9007
:1020E80003A8E0640170187A207B009003A1E0F94E
:1020F800120EC57A207B009003A1E0F9120E4190E0
:102108006182E0D2E6F0900541E0602185C6228038
:10211800169003A7E064017008E5C654F84405F575
:10212800C653BEFC121E487401652160E4EEA2E0AD
:1021380092AF7F0102168C008E238F24858228851A
:102148008327851882851983E0CEA3E0CF8528826E
:10215800852783EBC9EAC8EDCBECCA75F010C3E854
:1021680033C8E933C9EA33CAEB33CBC3EA9EF52651
:10217800EB9FF525B35004AB25AA26EC33CCED3301
:10218800CDD5F0DAAE23AF242274ED1215E08A081B
:102198008B098C0A8D0B7413121568780C1213EDC9
:1021A8007808790C1211EC7510017511C8751200B8
:1021B80075130050127808790C12138C781079086E
:1021C8001211EC50168010780C790812138C7810C4
:1021D800790C1211EC40047901800279007F0C021D
:1021E800168C74ED1215E08A088B098C0A8D0B7415
:1021F80013121568780C1213ED780C79081211EC8B
:1022080040117808790C12138CAA08AB09AC0AADF6
:102218000B80227510007511007512007513017876
:1022280010790C12138C78107908121353AA10AB7A
:1022380011AC12AD1380A68A828B837508FF7509CD
:10224800FF750AFF750B0078081213DA7F0402166F
:102258008C74F51215E08C828D8378081213ED8A40
:10226800828B8378081213A0EA2404F8EB3400F96F
:102278008C828D83A3A3A3A3E0FCA3E0FD888289BD
:1022880083C3E09CF0A3E09DF088828983C3E09437
:1022980020A3E0944E40268A828B837508FF750937
:1022A800FF750AFF750BFF78081213798A828B83F2
:1022B800A3A3A3A3E02420F0A3E0344EF002223F1E
:1022C80074F51215E0E9FE9004F7E0FAA3E0FBEEDE
:1022D800C333F8E433F9749128F582748039F583AF
:1022E800E02AF508A3E03BF50978081217877A4039
:1022F8007B427C0F7D0012214074021215338A083C
:102308008B098C0A8D0B7410780812131BAA08AB62
:10231800097F0402168C74F11215E08A0C8B0D8C5F
:102328000E8D0F740F121568E0FAA3E0FB741112FA
:102338001568E0F508A3E0F5097808121787EA247C
:1023480001F508EB3400F509E4F50AF50B780C798A
:102358000812122B750871750902780C7908121287
:102368002BAA0CAB0DAC0EAD0F1221407402121546
:10237800338B09EA450960047A0180027A00EC2A65
:10238800FCED3400FD7413121568E0F8A3E0F9E8D9
:10239800FEE9FFECF8EDF97A717B021214928808D5
:1023A80089098E828F8378081213FCECF8EDF97A8C
:1023B800717B021214928A088B0974057808121529
:1023C8000A8E828F83A3A3A3A3E508F0A3E509F0EF
:1023D8007F0802168CC082C083E9906000F0D08329
:1023E800D08222C2AF02000022C0E074F21216CCE2
:1023F800A2AFE433FED2AFE589A2E04006E589A2A8
:10240800E15003121021758900758900C2C5EEF8E4
:10241800EEA2E092AF7F0102172BC0E0C0D0E8C067
:10242800E0E9C0E0A2AFE433F8D2AFC2C7E8F9E808
:0F243800A2E092AFD0E0F9D0E0F8D0D0D0E032FF
:10244800FFFFFFFFFFFFFFFF74EE12157474FA120F
:10245800151D8A0A8B0B8909ECFEEDFF75080085AE
:102468000A0C850B0D780C1217CB0004102927993C
:1024780024BA24D924FA241B253C256F259025A7A6
:1024880025D5259326B426D426FE262927292700D4
:10249800267401650970158E828F83E0C3940350FA
:1024A8000B8E828F83E0900A2BF080037508180248
:1024B80027527402650970138E828F83E0F8A3E0B7
:1024C800F9900A2CE8F0A3E9F080037508180227B0
:1024D800527401650970158E828F83E0C39402508F
:1024E8000B8E828F83E090075EF0800375081802D8
:1024F80027527401650970158E828F83E0C3940595
:10250800500B8E828F83E090075FF0800375081868
:102518000227527401650970158E828F83E0C39477
:1025280002500B8E828F83E0900760F0800375085D
:1025380018022752741065097027750C10750D0064
:10254800780C121787EEFCEFFD7A617B07120DE716
:1025580074021215338A0C8B0D850C82850D8380CD
:10256800037508180227527401650970158E828F49
:1025780083E0C39402500B8E828F83E0900771F042
:10258800800375081802275274016509700B8E8242
:102598008F83E0900A2FF080037508180227527481
:1025A80004650970229080EA780C1213ED8E828FF0
:1025B80083780C1211FC500F8E828F8312140B90AB
:1025C80007731214178003750818022752E509705B
:1025D80021120523E97013120F79E9F50C795012CD
:1025E80010D5E9F50D120F67800B9008067401F0FD
:1025F80080037508180227527407650960030226CC
:102608008D750E06750F00780E1217878E828F83D0
:10261800A3AC82AD837402121568AA82AB83120D33
:10262800ED74021215338A108B1185100E85110F67
:102638007C007D00851882851983AA82AB838E82EF
:102648008F83E0F9120F0DE9F50CE50CC3940A50DD
:102658002F120523E97015A90C120F7FE9F50D79E2
:10266800501210D5E9F50E120F67801C750D007415
:1026780007250CF5827408350DF5837401F0800880
:1026880075080280037508180227527401650970DD
:10269800158E828F83E0C39402500B8E828F83E065
:1026A800900772F0800375081802275274016509B3
:1026B80070158E828F83E0C3940A500B8E828F83AD
:1026C800E0900A2EF08003750818807E7401650971
:1026D800701F8E828F83E0C3940740158E828F838C
:1026E800E0C39411500B8E828F83E0900A30F08003
:1026F800597508188054740165097020900805E020
:10270800F50C8E828F83E0900805F0E50C703B9005
:102718000805E064017033120F67802E7508188071
:1027280029C3E50A9427E50B9400501B7402650938
:1027380070158E828F83E0FCA3E0FDAA0AAB0B1212
:1027480003C1E9F5088003750802A9087406121583
:10275800337F0A02164674EC12157474DA12151DCA
:10276800890D8A128B138C0A8D0B743A121568E046
:10277800F50C9080D4C082C083851882851983ACFB
:1027880082AD83D083D08274061214308518828576
:102798001983AC82AD83AA12AB13A90D120F0DE9F0
:1027A800FEEEC3940A40030228FDEEF9120F49E930
:1027B800FF900A2BE064027004740180027400F533
:1027C80008780812178BAD0CEFFCEEF9AA0AAB0BD0
:1027D800120FBB74011215337C147D00790074123A
:1027E800121568AA82AB83120DFF8A0E8B0F850E15
:1027F80008850F097412121568AC82AD837A1075BA
:10280800F006EEA42424F91210CFE970437C107965
:10281800FF7412121568AA82AB83120E5FE970303A
:102828007422121568AC82AD837A0475F006EEA4A2
:102838002425F91210CFE9F5087412121568AC8234
:10284800AD83EFA2E0E433F9AA0AAB0B12044BE91B
:102858007406121568AC82AD837A0C74702EF91266
:1028680010CFE9707E7406121568AA82AB83120F26
:102878003D750E00E50EC394045068E50EA80E7968
:1028880000E875F003A4C8AAF075F000A42AFA7548
:10289800F003E9A42AF97406121568E58228F508F8
:1028A800E58339F509850882850983E0F8A3E0F90D
:1028B800E849602B850882850983A3A3E0F5107594
:1028C80011007810121787850882850983E0FCA318
:1028D800E0FDAA0AAB0B1206A37402121533E90530
:1028E8000E8091EFA2E1500D90075DE0F9AA0AABC6
:1028F8000B1206A9E97404650C700F900A2BE064AA
:10290800027007AA0AAB0B120FB5790074261215CC
:10291800337F0C02164674F2121574890BEAFEEB2B
:10292800FF8C088D09750A0AE50B600C1460091400
:1029380060441460640229C2EEFAEFFB120F5BE9EF
:10294800F50AE50AC3940A5071E5084509606B75F4
:102958000C06750D00780C121787EEFCEFFDAA081F
:10296800AB09120DE774021215338A0C8B0D850C16
:1029780082850D838044EEFAEFFB120F55E9F50AC4
:10298800E50AC3940A5033E5084509602DAA08AB47
:1029980009A90A120F4FE98021EEFAEFFB120F6125
:1029A800E9F50AE50AC3940A5010E5084509600AE2
:1029B800AA08AB09A90A120F4FE9A90A7F0602164D
:1029C8004674F21215748A0C8B0DE9FE7F1574FF9C
:1029D800650C700474FF650D702A750800E508C35E
:1029E800940A5014EEFC7A027B00A908120F2BE916
:1029F80060027F00050880E5EE60637AA37B0F1212
:102A0800089B805AAA0CAB0D12087D8A0A8B0B858D
:102A18000A08850B09E508450960417C007D00E549
:102A2800082405FAE5093400FB850882850983A393
:102A3800A3A3A3E0F9120F0DE9F50AE50AC3940A66
:102A4800500EEEFC7A027B00A90A120F2BE97F00D8
:102A5800EE600BAA08AB09120FA380027F14EFF9EE
:102A68007F0602164674EE1215748A0E8B0F8C0AB6
:102A78008D0B7412121568E0F50CA3E0F50D7508BE
:102A88001574FF650E700474FF650F701E7E00EEEE
:102A9800C3940A5062AC0CAD0DAA0AAB0BEEF91246
:102AA8000F31E960037508000E80E4AA0EAB0F121F
:102AB800087D8A108B11AE10AF11EE4F60367C0086
:102AC8007D00EE2405FAEF3400FB8E828F83A3A3EA
:102AD800A3A3E0F9120F0DE9F509E509C3940A501B
:102AE80016AC0CAD0DAA0AAB0BA909120F31E9758A
:102AF80008008003750814A9087F0A02164674F7AF
:102B0800121574EAFEEBFF900777EEF0A3EFF09052
:102B1800075DE0FC7D007A267B001203C1E9F50819
:102B280090075DE0F91206257F0102164674F2123D
:102B3800157474EC12151D8A0A8B0B850A82850B95
:102B480083A3A3E024FA7003022F8124FD700302FB
:102B58002DF6147003022C2814601024FD70030253
:102B68002D9E147003022E36022FE8AE0AAF0B908A
:102B78000777E0F8A3E0F9E8496069900777E0F89B
:102B8800A3E0F5838882E0F8A3E0F9E8496055EE10
:102B9800240CF582EF3400F583E0F5087808121765
:102BA8008BEE240BF582EF3400F583E0F98E828FEB
:102BB80083A3A3A3A3A3A3A3A3A3E0FCA3E0FDEE85
:102BC8002403FAEF3400FB900777E0F8A3E0F583DD
:102BD8008882E0F8A3E0F5838882121572740112E6
:102BE800153380398E828F83A3A3A3A3A3A3A3A3A2
:102BF800A312179E90077312140B12045D7402122D
:102C08001533E9601879018E828F83A3A3A3A3A348
:102C1800A3A3A3A3E0FAA3E0FB120457E9022FE859
:102C2800AE0AAF0B8E828F83A3E06003022D4C8E19
:102C3800828F83A3A3A3A3A3E0A2E04003022D4CA9
:102C4800900811E0F8A3E0F9E8496003022D4C7CF4
:102C58000E7D0079007406121568AA82AB83120DE6
:102C6800FF8A088B09AA08AB09EE240CF582EF3419
:102C780000F583E0F8A3E0F9E849603B75080675BC
:102C880009007808121787EE240CF582EF3400F556
:102C980083E02410FCA3E03400FD7408121568AA30
:102CA80082AB83120DE774021215338A088B0985EB
:102CB800088285098380548E828F83A3A3A3E0FAB8
:102CC800A3E0FB12087D8A0C8B0D850C08850D0985
:102CD800E50845096032750C06750D00780C121769
:102CE80087E5082405FCE5093400FD740812156819
:102CF800AA82AB83120DE774021215338A0C8B0D6E
:102D0800850C82850D838003022FE88E828F83A332
:102D1800A3A3A3A3E0A2E25004D2F08002C2F0A2CF
:102D2800F0E433F879007412121568E048F0A3E073
:102D380049F07A027B0090075DE0F9120E3BE979D1
:102D480000022FEA900777E0F8A3E0F9E84960432A
:102D5800900777E0F8A3E0F5838882A3A3E0F8A3BF
:102D6800E0F9E849602D8E828F83A3E0FC79018E1B
:102D7800828F83A3A3A3E0FAA3E0FB900777E0F890
:102D8800A3E0F5838882A3A3E0F8A3E0F583888213
:102D9800121572022FE8AE0AAF0B900777E0F8A37E
:102DA800E0F9E8496045900777E0F8A3E0F5838803
:102DB80082A3A3E0F8A3E0F9E849602F850A828599
:102DC8000B83A3E0FC79028E828F83A3A3A3E0FA8E
:102DD800A3E0FB900777E0F8A3E0F5838882A3A33C
:102DE800E0F8A3E0F5838882121572022FE8AE0A94
:102DF800AF0B7C007D00EE2404FAEF3400FB8E82DA
:102E08008F83A3A3A3E0F9120F0DE9F508E508C322
:102E1800940A5017EE240AFCEF3400FD7A0475F08A
:102E280006E508A42425F91210C9E9022FE8AE0A1C
:102E3800AF0B900772E06018900A2EE0F98E828F2F
:102E480083A3A3A3E0FAA3E0FB120457E9022FE847
:102E5800900A2BE0701579058E828F83A3A3A3E0D7
:102E6800FAA3E0FB120457E9022FE88E828F83A3AE
:102E7800A3A3E0FAA3E0FB12087D8A0C8B0D850C56
:102E880008850D098E828F83A3A3A3A3A3A3A3E020
:102E9800A2E05076E5084509606D850882850983BA
:102EA800A3A3A3A3E060638E828F83A3A3A3A3A39A
:102EB800A3A3A3A3E0F8A3E0F9E8C4540FF87900AA
:102EC8005401F8E95400F9E8A2E0403E85188285EB
:102ED8001983AC82AD83E5082405FAE5093400FBC3
:102EE800850882850983A3A3A3A3E0F9120F0DE93E
:102EF800701879038E828F83A3A3A3E0FAA3E0FB63
:102F0800120457E9022FE8022FE8EE2405FCEF34FB
:102F180000FD850882850983A3A3A3A3E0F98E8217
:102F28008F83A3A3A3E0FAA3E0FB120FAF90077768
:102F3800E0F8A3E0F9E849603E900777E0F8A3E0FD
:102F4800F5838882A3A3E0F8A3E0F9E84960287C28
:102F58000079008E828F83A3A3A3E0FAA3E0FB90FD
:102F68000777E0F8A3E0F5838882A3A3E0F8A3E05D
:102F7800F58388821215728067120523E9706190C3
:102F88000806E06401701A120F79E9FE90080674C9
:102F980000F07C0A7D0079007A077B08120DFF801B
:102FA800357800E8C3940A502D880875090074071D
:102FB8002508F58274083509F583E06401701488E2
:102FC8000875090074072508F58274083509F58322
:102FD8007400F00880CD79501210D5E9FE120F6701
:102FE800790174141215337F0602164674F312150C
:102FF8007474F212151D8909EAFEEBFF8C0C851812
:1030080082851983AC82AD837A0E75F006E509A432
:103018002420F91210CFE970727C0679FF85188296
:10302800851983AA82AB83120E5FE9705E740C1255
:103038001568E0F8A3E0F9E8F508E50C6005EE424C
:10304800088004EEF4520885080A750B00740C1207
:103058001568E0650A7004A3E0650B602AE508A816
:10306800087900740C121568E508F0A3E9F08518D2
:1030780082851983AC82AD837A0E75F006E509A4C2
:103088002420F91210C9E9790180027900740E121E
:1030980015337F0502164674F012157474E612157E
:1030A8001D890B8A0C8B0DECFEEDFF740C12156854
:1030B800AC82AD837A0E75F006E50BA42420F912D4
:1030C80010CFE960030232037C0679FF740C1215F5
:1030D80068AA82AB83120E5FE96003023203851887
:1030E80082851983AC82AD837A0C7470250BF91232
:1030F80010CFE960030231FF750A0085188285192F
:1031080083AA82AB83120F3DE50C450D703A7C0C07
:103118007900851882851983AA82AB83120E5FE92C
:1031280060030231D97C0C7D0079008518828519ED
:1031380083AA82AB83120DFF8A088B0985088285D2
:103148000983750A010231D9851882851983AC82F1
:10315800AD83AA0CAB0D120F378A0E8B0F850E08A4
:10316800850F09E50845097036EE4F6021851882FC
:10317800851983AC82AD837A007B00120F378A0EE3
:103188008B0FA80EA90F88088909E84970047900EF
:10319800806B850882850983E50CF0A3E50DF08531
:1031A8000882850983A3A3E0F87900EE687002EF2E
:1031B80069601EEE850882850983A3A3F0EE4F702F
:1031C8000D8508828509837400F0A37400F0750AE0
:1031D80001E50A6022851882851983AA82AB8312C9
:1031E8000F3D851882851983AC82AD837A0C747083
:1031F800250BF91210C9E9790180027900741A12B5
:1032080015337F0802164674F7121574EAFEEBFFB1
:103218007B00EBC39404504EEBF87900E875F0039B
:10322800A4C8AAF075F000A42AFA75F003E9A42A44
:10323800F9EC28F582ED39F583E06E7003A3E06FB1
:103248007021EBF87900E875F003A4C8AAF075F0CE
:1032580000A42AFA75F003E9A42AF9EC28FAED3952
:10326800FB80070B80AC7A007B007F010216467456
:10327800F71215747F00EFC394044003023326EF5E
:10328800F87900E875F003A4C8ACF075F000A42C38
:10329800FC75F003E9A42CF9EA28F582EB39F583EB
:1032A800E0F4FCA3E0F4FDEFF87900E875F003A47E
:1032B800C8AEF075F000A42EFE75F003E9A42EF94F
:1032C800EA28F582EB39F583ECF0A3EDF0EFF87915
:1032D80000E875F003A4C8ACF075F000A42CFC75E8
:1032E800F003E9A42CF9EA28F582EB39F583A3A3C6
:1032F800E0F4C0E0EFF87900E875F003A4C8ACF09A
:1033080075F000A42CFC75F003E9A42CF9EA28F563
:1033180082EB39F583A3A3D0E0F00F02327E7F0160
:1033280002164674F012157474F412151DEAFEEBB9
:10333800FF8C088D09900811E0F8A3E0F9E84970BE
:103348002CEE4F6006E5084509700579010235E362
:10335800EEFAEFFB120F5BE9900A31F0900A31E0C8
:10336800C3940A4008120F6DE9900A31F0900A31AF
:10337800E0C3940A40030235E1900811E0F8A3E0A5
:10338800F9E849600302342DEEFCEFFD7A0E75F082
:1033980006900A31E0A42420F91210C9E9F50C7C42
:1033A8000C7D0079FF851882851983AA82AB831268
:1033B8000DFF8A0E8B0F850E0A850F0B85188285E7
:1033C8001983AC82AD837A0C900A31E02470F9122B
:1033D80010C9E9F50D750E0E750F00780E121787D6
:1033E800EEFCEFFD900A31E0F87900E875F00EA4E4
:1033F800C8AAF075F000A42AFA75F00EE9A42AF913
:10340800747928FA740739FB120DE7740212153320
:103418008A0E8B0FA80EA90F900811E508F0A3E5F6
:1034280009F00235DD900811E0F8A3E0C82406F59C
:1034380082E83400F583E0F8A3E0F9E849604390B6
:103448000811E0F8A3E0C82406F582E83400F58303
:10345800E0FCA3E0FD7A1B75F006900A31E0A42495
:1034680021F91210C9E9F8900811E0F9A3E0C9247C
:1034780006F582E93400F5837400F0A37400F002C5
:1034880035DD900811E0F8A3E0C8240AF582E83495
:1034980000F583E0F8A3E0F9E8496043900811E0FB
:1034A800F8A3E0C8240AF582E83400F583E0FCA319
:1034B800E0FD7A1B75F006900A31E0A42422F91287
:1034C80010C9E9F8900811E0F9A3E0C9240AF582C7
:1034D800E93400F5837400F0A37400F00235DD9040
:1034E8000811E0F8A3E0C8240CF582E83400F5835D
:1034F800E0F8A3E0F9E8496043900811E0F8A3E098
:10350800C8240CF582E83400F583E0FCA3E0FD7ADA
:103518001075F006900A31E0A42423F91210C9E9C5
:10352800F8900811E0F9A3E0C9240CF582E9340009
:10353800F5837400F0A37400F00235DD900811E003
:10354800F8A3E0C82408F582E83400F583E0F8A37E
:10355800E0F9E849606F900811E0F8A3E0C8240892
:10356800F582E83400F583E0FCA3E0FD7A1075F0FD
:1035780006900A31E0A42424F91210C9E9F50A904A
:103588000811E0F8A3E0C82408F582E83400F583C0
:10359800E02410FCA3E03400FD7A0475F006900ADC
:1035A80031E0A42425F91210C9E9F8900811E0F9CE
:1035B800A3E0C92408F582E93400F5837400F0A378
:1035C8007400F08010900805E06003120FC1120F1C
:1035D800A979018006790080027901740C121533EB
:1035E8007F0802164674F712157474F212151DE955
:1035F800FE851882851983AC82AD837A0E75F00634
:10360800A42420F91210CFE9700E740C121568E08A
:10361800F8A3E0F9E8F980027900740E1215337FF7
:103628000102164674F412157474F212151D8909F4
:10363800EAFEEBFFE509C3940A5004EE4F700479E3
:1036480002804B851882851983AC82AD837A0E750A
:10365800F006E509A42420F91210CFE9F508E508D9
:10366800702A750A06750B00780A121787740212F9
:103678001568AC82AD83EEFAEFFB120DE774021207
:1036880015338A0A8B0B850A82850B83A908740E69
:103698001215337F0402164674F4121574EAFEEB11
:1036A800FF750800E508C3940A5045750A06750BAE
:1036B80000780A121787EEFCEFFDE508A8087900E4
:1036C800E875F00EA4C8AAF075F000A42AFA75F0FF
:1036D8000EE9A42AF9747F28FA740739FB120DF948
:1036E8007402121533E96004A9088006050880B43D
:1036F800790A7F0402164674F4121574EAFEEBFF89
:10370800750800E508C3940A5045750A06750B004C
:10371800780A121787EEFCEFFDE508A8087900E89B
:1037280075F00EA4C8AAF075F000A42AFA75F00E78
:10373800E9A42AF9747928FA740739FB120DF97487
:1037480002121533E96004A9088006050880B479D7
:103758000A7F0402164674F712157474F012151DC8
:10376800EAFEEBFF750800E508C3940A504B85187C
:1037780082851983AC82AD837A1075F006E508A4BA
:103788002423F91210CFE9702C7C1079FF85188258
:10379800851983AA82AB83120E5FE97018EEFCEFDD
:1037A800FD851882851983AA82AB8312042DE970DE
:1037B80004A9088006050880AE790A74101215332A
:1037C8007F0102164674F4121574750800E508C3E3
:1037D800940A40030238AFE508A8087900E875F0B4
:1037E8000EA4C8AAF075F000A42AFA75F00EE9A490
:1037F8002AF9747928FC740739FD7A0E75F006E504
:1038080008A42420F91210CFE970030238AA7C0614
:103818007D0079FFE508AA087B00EA75F00EA4CAC6
:10382800A8F075F000A428F875F00EEBA428FB7436
:10383800792AFA74073BFB120DFF8A0A8B0BAE0A32
:10384800AF0B7C067D0079FFE508AA087B00EA75C6
:10385800F00EA4CAA8F075F000A428F875F00EEBD5
:10386800A428FB747F2AFA74073BFB120DFF8A0A0F
:103878008B0BAC0AAD0BE508A8087900E875F00ECB
:10388800A4C8AAF075F000A42AFA75F00EE9A42AD3
:10389800F9748528F582740739F5837400F0A374E8
:1038A80000F005080237D5900805E06003120FC143
:1038B800120FA97F0402164674F71215747E00EEE3
:1038C800C3940A50327C0679FFEEFA7B00EA75F061
:1038D8000EA4CAA8F075F000A428F875F00EEBA4A1
:1038E80028FB74792AFA74073BFB120E5FE960041F
:1038F800EEF980050E80C8790A7F0102164674F732
:103908001215747E007F00EFC3940A502F7C06794D
:10391800FFEFFA7B00EA75F00EA4CAA8F075F00074
:10392800A428F875F00EEBA428FB74792AFA74071A
:103938003BFB120E5FE970010E0F80CBEEF97F01A1
:1039480002164674F71215747E007F00EFC3940ABE
:10395800500DEE700AEFF9120F7FE9FE0F80EDEEC1
:10396800F97F0102164674F012157474CB12151DF6
:103978008909900A31E06509701D7A017B0090077A
:103988005DE0F9120E41E97A027B0090075DE0F9EB
:10399800120E41E9120FCD7427121568AC82AD835F
:1039A8007A0E75F006E509A42420F91210CFE96013
:1039B80003023ADA7C0679FF7427121568AA82ABEB
:1039C80083120E5FE96003023ADA7C0E7D0079FF0C
:1039D8007427121568AA82AB83120DFF8A0A8B0B13
:1039E800850A0C850B0D7C1B7D0079FF740C121564
:1039F80068AA82AB83120DFF8A0E8B0F850E0A858B
:103A08000F0B7C0C7D0079FF851882851983AA82AB
:103A1800AB83120DFF8A0E8B0FAE0EAF0F742712F9
:103A28001568AC82AD837A0E75F006E509A42420EA
:103A3800F91210C9E9F508740C121568AC82AD8347
:103A48007A1B75F006E509A42421F91210C9E94288
:103A580008740C121568AC82AD837A1B75F006E504
:103A680009A42422F91210C9E94208740C12156835
:103A7800AC82AD837A1075F006E509A42423F91207
:103A880010C9E94208740C121568AC82AD837A102B
:103A980075F006E509A42424F91210C9E94208744E
:103AA8000C121568AC82AD837A0475F006E509A49A
:103AB8002425F91210C9E94208851882851983ACB2
:103AC80082AD837A0C74702509F91210C9E942088D
:103AD8008003750800A90874351215337F0802168B
:103AE8004674F7121574E9FE90075DF0120F677FB0
:103AF8000102164674F2121574890AEAFEEBFFEE0B
:103B08005400F8EF5480F9E849603590075DE0F912
:103B1800120E238A0C8B0DA80CA90D88088909E8B8
:103B2800496012AA08AB09120F91E96008AA08AB0C
:103B380009120E11E9EE6400FAEF6480FB023C0002
:103B4800EE5402602D7C007D007A007B00120F434A
:103B5800E960187A017B0090075DE0F9120E3BE9F5
:103B6800EE6402FAEF6400FB023C007A027B00027A
:103B78003C00EEA2E0507D900811E0F8A3E0F58348
:103B88008882A3A3A3E0FAA3E0FB120FC7E9605E53
:103B9800900777E0F8A3E0F9E8496045900777E0F7
:103BA800F8A3E0F5838882A3A3E0F8A3E0F9E84945
:103BB800602F7C007901900811E0F8A3E0F5838874
:103BC80082A3A3A3E0FAA3E0FB900777E0F8A3E0C1
:103BD800F5838882A3A3E0F8A3E0F5838882121511
:103BE80072120FCDEE6401FAEF6400FB800A7A01CD
:103BF8007B0080047A007B007F0602164674F71269
:103C08001574EAFEEBFF7508018E828F83E024505D
:103C1800601314601924E1701CEEFAEFFB120F25F3
:103C2800E9F5088010EEFAEFFB120F978007EEFA1D
:103C3800EFFB120F9DA9087F0102164674F71215B3
:103C480074EAFEEBFF8E828F83A3A3A3A3E0641E16
:103C5800701179008E828F83A3A3E0FAA3E0FB1290
:103C68000F13E97F0102164674F6121574EAFEEB8B
:103C7800FF8E828F83A3A3A3A3E0703A8E088F09D7
:103C8800850882850983A3A3A3A3A3A3A312179ED0
:103C9800850882850983A3A3A3A3A3E0FCA3E0FD71
:103CA800850882850983A3A3E0FAA3E0FB120F1914
:103CB8007402121533E97F0202164674F71215745E
:103CC800EAFEEBFF90075DE0F98E828F83A3E0FAAE
:103CD800A3E0FB1206A9E97F01021646C082C08351
:103CE80074FF12151D120F73E9C39402400B851857
:103CF800828519837402F080098518828519837476
:103D08000AF0851882851983AC82AD837A0179051A
:103D180012053BE97401121533D083D082020122C7
:103D280074F212157474E812151DEAFEEBFF890A85
:103D38008C088D097C187D00790085188285198387
:103D4800AA82AB83120DFF8A0C8B0DAC0CAD0D85CE
:103D58001882851983EEF0A3EFF090075FE0C0E0CA
:103D68007402121568D0E0F0900760E0C0E07403B8
:103D7800121568D0E0F0900A30E0C0E07417121510
:103D880068D0E0F07415121568E054FEF8A3E0540A
:103D9800FFF9900A2FE0A2E0E433FA7B00E84AF842
:103DA800E94BF97415121568E8F0A3E9F0900A2FA9
:103DB800E0A2E15004D2F08002C2F0741512156836
:103DC800E054FDFAA3E054FFFBA2F0E433F87900D5
:103DD800C333F8E933F9EA48F8EB49F974151215D1
:103DE80068E8F0A3E9F0900A2FE0A2E35004D2F0CB
:103DF8008002C2F07415121568E054F7FAA3E05473
:103E0800FFFBA2F0E433F50C750D007403780C1277
:103E1800150AEA450CF8EB450DF97415121568E812
:103E2800F0A3E9F0900A2FE0A2E45004D2F0800257
:103E3800C2F07415121568E054EFFAA3E054FFFBC2
:103E4800A2F0E433F50C750D007404780C12150A11
:103E5800EA450CF8EB450DF97415121568E8F0A35E
:103E6800E9F0900A2FE0A2E55004D2F08002C2F0F7
:103E78007415121568E054DFFAA3E054FFFBA2F0B2
:103E8800E433F50C750D007405780C12150AEA4533
:103E98000CF8EB450DF97415121568E8F0A3E9F074
:103EA800900A2FE0A2E25004D2F08002C2F074150A
:103EB800121568E054FBFAA3E054FFFBA2F0E433C8
:103EC800F50C750D007402780C12150AEA450CF809
:103ED800EB450DF97415121568E8F0A3E9F09007A1
:103EE80060E0602A750C10750D00780C1217877C3D
:103EF800617D077406121568AA82AB83120DE774F8
:103F0800021215338A0C8B0D850C82850D83900760
:103F180071E06012E50A600E7415121568E044023B
:103F2800F0A3E04400F0900771E0600678017900A2
:103F38008004780079007414121568E048F090073E
:103F48005EE06006780479008004780079007414D3
:103F5800121568E048F0AC08AD0985188285198308
:103F6800AA82AB83120451E974181215337F060232
:103F7800164674F7121574EAFEEBFF7508009007F1
:103F880071E0600678017900800478007900E842E1
:103F98000890075EE060067804790080047800796C
:103FA80000E84208A908EEFAEFFB12050BE97F01C9
:103FB80002164674EE12157474E512151D8A0C8BE0
:103FC8000DE9FF8C088D09742D121568E0F50A7447
:103FD800086509700A75F006EFA42422FE800875AA
:103FE800F006EFA42421FE7C1B7D00790085188251
:103FF800851983AA82AB83120DFF8A108B11851055
:104008000E85110F851882851983AC82AD837A1BC2
:10401800EEF91210CFE9703C741A121568E0C394D7
:10402800074031741A121568E0C394115026E50A46
:10403800F50B780B12178B7401121568AC82AD83DF
:10404800E508A2E0E433F9AA0CAB0D12046374018D
:10405800121533E9741B1215337F0A02164674F7DA
:1040680012157412071BE97E00EEC3940A50557CA2
:104078000679FFEEFA7B00EA75F00EA4CAA8F0757F
:10408800F000A428F875F00EEBA428FB74792AFA3E
:1040980074073BFB120E5FE97027EEF87900E875AC
:1040A800F00EA4C8AAF075F000A42AFA75F00EE97B
:1040B800A42AF9747928FA740739FB7900120721C0
:1040C800E90E80A57F0102164674F612157474FD78
:1040D80012151DEAFEEBFF900813E0F8A3E0F9E8DB
:1040E8004970397508157509087808121787750811
:1040F80002750900780812178775082475098178F0
:10410800081217877CFF7DFF7A017B0012057D74FA
:1041180006121533900813EAF0A3EBF0900813E0A9
:10412800F8A3E0F9E84970030241F2E4F508F5095B
:104138007808121787740412156885820885830920
:104148007808121787740412156885820885830910
:10415800780812178790081512179E79029008138D
:10416800E0FCA3E0FDEEFAEFFB12069774081215C7
:1041780033E9704A851882851983E0FA7B00740157
:10418800121568E0F87900E4C8F9EA28F508EB396F
:10419800F509E5084509602678081217879008137D
:1041A800E0F8A3E0F5838882A3A3A3A3E0FCA3E03F
:1041B800FDEEFAEFFB120F197402121533E9E4F55C
:1041C80008F509780812178790081512179E7CFFC2
:1041D8007DFF900813E0FAA3E0FB1205897404122E
:1041E8001533900813EAF0A3EBF0900813E0F8A356
:1041F800E0F9E84970047901800279007403121526
:10420800337F02021646C082C083900811E0F8A3EB
:10421800E0F9E8496017900811E0FAA3E0FB120EF4
:1042280011E9F89008117400F0A37400F0900A31B5
:10423800740AF0D083D082020122C082C083E99040
:1042480009E7F002446C74F7121574E99002E1F082
:104258007C197D037AFF7BFF1206AF9002E274FFA0
:10426800F0A3F0A3E4F0A3F0790512063D9002E173
:10427800E0F91205657AC77B0612086B7F01021602
:104288004674F41215748A088B09EB5480603090D8
:1042980002E1E0F9120E238A0A8B0BAE0AAF0BEE8D
:1042A8004F60138E828F83E064B0700312064FEE66
:1042B800FAEFFB120E11AA08E5096480FB80047A64
:1042C800007B0002443B74F212157474FC12151D35
:1042D800EAFEEBFFEE4F60387402121568EEF0A3A9
:1042E800EF1246A0ECF0A3ED1246A0AA82AB83120F
:1042F800055FE9F50870737412121568125254E5D7
:104308000A450B60658E828F8312437CEE4F7005E1
:1043180075080280557A067B00120E7D8A0C8B0D7B
:10432800A80CA90DE8497005750813803D88828995
:1043380083E4124386A3A3EEF0A3EF1256EDE50A39
:10434800F0A3E50BF09002E712440E9002E7601725
:10435800E0FCA3E08003EAFCEBFD8C828D83124431
:104368000E70F38C828D83125179A908740412158A
:10437800330258EFA3A3A3A3E0FEA3E0FF22F0A318
:10438800F0888289832274F2121574890AE975F01B
:1043980017A4FEAFF09002E6E4F09002E412440E97
:1043A800600A120E839002E4E4F0A3F0EEFAEFFB49
:1043B800120E7D8A088B09EA4509602FEEFCEFFD95
:1043C8007900120DFF9002E4E508F0A3E509F07BFF
:1043D8000080081243F8E4F0A3F00BEBC3950A4001
:1043E800F2E50A9002E6F07900800279130258EFAC
:1043F800EB75F017A4F8A9F09002E4E028FAA3E01E
:10440800398A82F58322124F0FEA4B2274F412156F
:10441800747900EAA2E0501B7508C2750980780813
:104428001217877C047D007AE97B0912063774022B
:104438001215337F04021646C082C0839002E71229
:104448004473601C88828983A3A3E06A7003A3E095
:104458006B8882898370E8A3A3A3A3124F0B8004FF
:104468007A007B00D083D0820201221259C2E84927
:104478002274EE12157474FC12151DEAFEEBFF850A
:104488001882851983E4F0A3F0EE240212515DEE40
:10449800240512468EEE2404F50EEF124A73E0242A
:1044A800FE603924FC604624FE605224FE605E24CF
:1044B800FE700302459324FE700302460B24FE702F
:1044C8000302461A24FE700302462924FC700302E4
:1044D800463824FE7003024647024684900300745F
:1044E80017F0A3E41246A81202E302468485188254
:1044F800851983AC82AD831206550246548518820D
:10450800851983AC82AD8312065B024654850C087C
:10451800850D097402121568AC82AD838508828501
:104528000983124F0B1205838A0C8B0DAC0CAD0D51
:10453800EC4D6042E4F50CF50D780C121787750CFC
:1045480000750D03780C121787750C01750D03782B
:104558000C121787740812156812179E7916124FD5
:10456800051206977408121533E9F50C700B124FF3
:10457800011202FB800F750C0185088285098312E0
:104588004696125179850C0802465774021215682E
:10459800AC82AD83850C82850D83124F0B12058387
:1045A8008A108B11AC10AD11EC4D6043850C8285DF
:1045B8000D83A3A312179E751000751103781012AE
:1045C8001787751001751103781012178774081270
:1045D800156812179E7916124F051206977408125D
:1045E8001533E9F509700B124F01120301800F759D
:1045F8000901850C82850D83124696125179850929
:1046080008804C851882851983AC82AD83120661B7
:10461800803A851882851983AC82AD83120667803B
:104628002B851882851983AC82AD8312066D801C98
:10463800851882851983AC82AD83120673800D8537
:104648001882851983AC82AD83120679E9F508E5ED
:104658000860298E828F83A3E06414601F850E8210
:10466800850F83E09003001246A01259BE90030103
:10467800125179E508A31246A81202DDEEFAEFFB03
:104688001205FB025065F50CEF3400F50D221259A6
:10469800C285188285198322F0851882851983229C
:1046A800F07C007D03850A82850B83124F0F2274EC
:1046B800EE12157474FC12151D8A0A8B0B8C0E8D64
:1046C8000FEA2405F508EB3400F5097C157D00791F
:1046D800007A007B03120DFFE5082402F50CE509BA
:1046E80012469185188285198385821085831178F1
:1046F80010121787850882850983A3A3A3A3124BE9
:10470800BB121787E5082405F510E5093400F511F3
:104718007810121787850C82850D83124F151205A4
:104728007D74061215338A108B11AE10AF11E50A8D
:104738002402F50AE50B125160EE4F700302487D22
:1047480080177402121568124F0B88828983EAF069
:10475800A3EBF0900300E004F0900300E0C394059D
:10476800400302487DE4F510F5117810121787759B
:1047780010E975110278101217877510EA75110281
:104788007810121787740612156812179E7910EEA2
:10479800FCEFFD124F051206977408121533E970E5
:1047A8005E850882850983A3A3A3A3A3A3A3E0F836
:1047B8009002E9E0687048124BBB1217877CEA7DCB
:1047C80002E5082408FAE5093400FB120DF9740221
:1047D800121533E960298E828F83A3A3A3A3124FF6
:1047E8000B900300E0F5107402781012150A74019A
:1047F8002510F58274033511F583EAF0A3EBF07404
:104808000212156885821085831178101217877433
:104818000212156812179E850C82850D831259D3D2
:1048280012058974041215338A108B11AE10AF115A
:10483800900300E0F5107511007402781012150A43
:1048480074002510F874033511F988828983A3123E
:10485800440E7003024741E82403F8E93400F9EEF6
:104868004F600302474A8882898374FFF0A3F0905F
:104878000300E004F0900300E0600A124F01120206
:10488800EF7900800B850882850983125170790AB7
:1048980002506574EA12157474FE12151D8C128D7F
:1048A80013EA2405F50CEB1259DD12438075080054
:1048B800750900EA2402F510EB3400F51185188219
:1048C80085198385820A85830B780A121787850CD8
:1048D80082850D83A3A3A3A3124A7D121787E50C33
:1048E8002405F50AE50D125160780A121787850C20
:1048F80082850D831259D112057D74061215338AEB
:104908000A8B0BEA450B7003024A2EEA2404F50EC3
:10491800EB124A731243808A828B83A3A3A3E0F924
:10492800851082851183124F0B12056BE9F509601A
:1049380003024A2EE4F514F5157814121787751436
:10494800E975150278141217877514EA7515027837
:1049580014121787740612156812179E7913AC0A79
:10496800AD0B851082851183124F0B1206977408C0
:10497800121533E9F5096003024A2E9002E9E0F8BE
:10498800E5087009E02402900301F0801790030104
:10499800E0FCE82402FAE43400FBEA6C7001EB6006
:1049A80003024A32850882AA82124BB29414124B2F
:1049B800AA5073850E82850F83E0C0E074022A1224
:1049C8004A6AD0E0F00508850E82850F83A3E0C00F
:1049D800E085080A7402250A124A6AD0E0F0050840
:1049E8009002E9124A7D1217877CEA7D0285080A3F
:1049F8007402250AFA74033400FB120DE7740212DC
:104A080015339002E9E02508F50874FF6E70037409
:104A1800FF6F6012EE24010EEF3400FFE508C39427
:104A28001450030248C5E5086013124DF68510823C
:104A3800851183124F0B1202F579008014E5097075
:104A48000375090A851282851383EEF0A3EFF0A996
:104A58000974021215337F0E02164685080C74027B
:104A6800250CF58274033400F583223400F50F8594
:104A78000E82F583221257002274EE12157474FE0A
:104A880012151D8C0E8D0FEA2405F50CEB124691BC
:104A9800750B00900300E4F0F50AEA2402F508EB30
:104AA8003400F5098049900300E0FA9002E9E0F843
:104AB800124BB29417124BAA400D900300E0F87401
:104AC80016C3989002E9F0124BBB1217877CEA7D57
:104AD8000274012AFA74033400FB120DE7740212FF
:104AE80015339002E9E0F8900300E028F0050AE5A4
:104AF8000C2416F582E50D124A6EE0F8E50AC39813
:104B08004003024B93900300E0C39416507DE50ADE
:104B1800C333F8E433F9E50C28FEE50D39FF8518B1
:104B280082851983AC82AD838E828F83124F0B12DC
:104B380005838A108B11AC10AD11EC4D7005750B07
:104B4800018043E4F510F51178101217877510E904
:104B580075110278101217877510EA75110278100E
:104B6800121787740612156812179E79168508821F
:104B7800850983124F0B1206977408121533E9F54D
:104B88000B7003024AAE12516C80107C007D0385C5
:104B98000882850983124F0B120307A90B740202BE
:104BA8005067E99400C365D03322EA28F8E434005A
:104BB800F9E822E0F51075110078102274EA121550
:104BC8007474FC12151D8A0C8B0D8C128D13EA243B
:104BD80005F50AEB125160750800750900E50A240D
:104BE80002F510E50B3400F5117402121568858280
:104BF8000E85830F780E121787850A82850B83A38B
:104C0800A3A3A31256AC121787E50A2405F50EE5EF
:104C18000B3400F50F780E121787851082851183E3
:104C2800125166124F0512057D74061215338A0E4D
:104C38008B0FAE0EAF0FE50C2402F50EE50D340018
:104C4800F50F80408882898374FFF00508124A6353
:104C580074FFF005089002E9E0F50C750D00780C7A
:104C68001217877CEA7D0285080C7402250CFA74F9
:104C7800033400FB120DE774021215339002E9E0C9
:104C88002508F508EE4F60718E828F83A3A3A3E0F9
:104C9800F9850E82850F83124F0B12056BE9F50912
:104CA800EE240412468EE97044E4F514F5157814E0
:104CB8001217877514E97515027814121787751479
:104CC800EA751502781412178774081215681217F6
:104CD8009E7911EEFCEFFD850E82850F83124F0B36
:104CE8001206977408121533E9F5096027850C82B6
:104CF800850D83124DEC125179E5087003024DD2EF
:104D0800124DF6850E82850F83124F0B12030D7913
:104D180000024DE7850882AA82EA9002E97009E05C
:104D28002404900301F08022E0F8900301E0F514D8
:104D3800E82404FCE43400FDEC65147001ED70C057
:104D4800124BB29412124BAA50B6850C82850D8371
:104D5800E0C0E074022A124A6AD0E0F00508850C27
:104D680082850D83A3E0C0E0124A63D0E0124E08AA
:104D780085820C85830D780C1217877404121568C8
:104D880012179E8510828511831259D312058974D2
:104D9800041215338A0C8B0DAE0CAF0D85080C74FC
:104DA80002250CF874033400F9EE4F7003024C4CE2
:104DB800851882851983E088828983124E08A3E0CA
:104DC800C0E0124A63D0E0024C5AE5097003750945
:104DD8000A850A82850B83124DEC125179A9097450
:104DE80004024A5B1259C2851282851383229003FA
:104DF80001E0F5F0E50884900300F07C007D0322D3
:104E0800F005088518828519832274EC12157474CC
:104E1800FE12151D8A088B098C0E8D0FEA2405FEDB
:104E2800EB3400FF851882851983AC82AD838E82AE
:104E38008F83124F0B1205838A0A8B0BEE241812EC
:104E4800468EEA450B7003024EDC12504E503285F6
:104E58001882851983124F0B12068B8A108B11EA60
:104E68004511606B7912AC0AAD0B85088285098300
:104E7800124F0B851082851183121572E9F50A709D
:104E880058E4F50AF50B780A1217878E828F83A3E8
:104E9800A3E0F50A780A121787EE240312515D7809
:104EA8000A1217878E828F83124F1512069D740679
:104EB800121533E9F50A7021850C82850D83E0709F
:104EC8001F850882850983124F0B12031380117501
:104ED8000A0E8009750A018004E50A600312516C04
:104EE800850C82850D83E0600479008002A90A742C
:104EF800021215337F0C0216467C007D03850A8258
:104F0800850B83124F0F22E0FAA3E0FB22E0FCA3FB
:104F1800E0FD850882850983124F0F2274EE121571
:104F28007474FE12151D8A088B098C0C8D0DEA24E9
:104F380005FEEB3400FF750E00851882851983ACD9
:104F480082AD838E828F83124F0B1205838A0A8B60
:104F58000BEA450B700302503A12504E5035851833
:104F680082851983124F0B12068B8A0E8B0FEA4526
:104F78000F605E7912AC0AAD0B8508828509831231
:104F88004F0B850E82850F83121572E9F50E6003AB
:104F980002503D850882850983125254AA0AFB12E1
:104FA800067F8A108B11A810A911E849701E7AFF94
:104FB8007BFF12067F8A108B11A810A911E849609F
:104FC8006C88828983E50AF0A3E50BF0750A0080F6
:104FD80007750E0E805F050A9002E6E0FAE50AC33F
:104FE8009A504AE50A75F017A4FAABF088828983CB
:104FF800A3A3E02AFAA3E03BFB8A828B83125166C3
:10500800EC4D70D2750A17750B00780A121787EEE7
:10501800FCEFFD120DE77402121533EEFCEFFD856F
:105028000882850983124F0B1203198014750E0923
:105038008003750E011259BA850C82850D831251B1
:1050480079A90E024BA5E5082402F508E509340004
:10505800F5098A828B83A3A3A3E0A2E52274041234
:1050680015337F0A02164674EC1215748C108D11D4
:10507800EA2405F50CEB124691750F00EA2402F5B7
:105088000AEB125160850A82F583124F0B12067FD4
:105098008A088B09EA45097003025152750E00808F
:1050A80071850C82850D83E06401704F8E828F8339
:1050B800A3A312179E8E828F83A3A3A3A3E0F51246
:1050C8007513007812121787EE2405F512EF3400D5
:1050D800F5137812121787124F0512069D740612DF
:1050E8001533E9F50F6014850C82850D83E4F01201
:1050F80059BA8510828511831251797C177D007900
:1051080000EEFAEFFB120DFF8E828F83E4F0A3F01E
:10511800050E9002E6E0F8E50EC398501EE50E7500
:10512800F017A4F8A9F0850882850983A3A312596A
:10513800E7125166EC4D60030250A9850882850983
:105148008374FFF0A3F0E50F7006124F0512031FDA
:10515800A90F024EFCF50AEF3400F50B22A3E0FC80
:10516800A3E0FD228E828F831259C2850E82850F9D
:1051780083E8F0A3E9F022C082C0839002E2E06AEB
:105188007003A3E06B70067AE27B0280047A007BEE
:105198000002446CC082C08378008C828D83E06AF0
:1051A8007003A3E06B7010E875F003A4F8A9F0ECA5
:1051B80028FAED39FB8015088C828D83A3A3A3E020
:1051C8006A7003A3E06B60DF7A007B0002446C74B2
:1051D800F61215741206498A828B83E5824583701C
:1051E800067A007B008007A3A3A3A3124F0B0258E3
:1051F8006B74F2121574E9FE740E1215681252548B
:1052080074101215681256CC8C828D83E06402707B
:1052180036A31259C8F50CA3E0F9A80C74026870FB
:10522800037429697021750C02750D00780C12172A
:10523800877808121787780A121787EEF91206C1BD
:105248007406121533800279010258EFE0F50AA3BB
:10525800E0F50B2274E812157474FB12151DE9852C
:105268001882851983F08A168B17ECFEEDFF7510EE
:1052780000741D1215681259BE741D12156812515A
:10528800798E828F83A3A3A3E0A2E4502D741D120C
:105298001568124F0B12068B8A828B83E582458331
:1052A800700302569D790AEEFCEFFDAA16AB1712A1
:1052B8001572E9F51060030256A0741F12156812E2
:1052C80056CC74211215681252547423121568E0D2
:1052D800F50EA3E0F50F8E828F83E064026003026F
:1052E800564BA31259BE850882850983A38582126D
:1052F800858313EE240612468E88828983E0FAA3FA
:10530800E0F9EA2400F514E439F5157814121811B7
:1053180001000028012840530700022805540328EB
:10532800725300293C55012967550229085503295C
:105338003C550429E6554B56E50E450F60030256C9
:1053480046850C82850D831256C1FAE9FB8A828B49
:1053580083E0850A82850B831256F71217878A82A3
:105368008B83A3E0FCA3E00255D0E50E450F600354
:10537800025646850A82850B837401F01256D4853D
:105388000882850983F07C007D008E828F83A3A329
:10539800A3A3E02401FAA3E03400FB120583EA4B3F
:1053A80060418A828B83E02402F8850A82850B8318
:1053B800E028F0EA2404F8EB3400F988828983E0D5
:1053C8008512828513831257091256F71217878A96
:1053D800828B83125165E5082403FAE5093400FB42
:1053E8000255D5850A82850B83E02404F07C047D70
:1053F800007900AA12AB13120DFF0256A0E50E4564
:105408000F60030256461256D4FEA3E0FF850A82B7
:10541800850B837404F0EE850882850983F0EF8597
:105428001282851383F07403121568AC82AD83EE83
:10543800FAEFFB1205838A0C8B0DEA450D70030207
:1054480054E98A828B83A3A312437C7401121568E2
:1054580085820E85830F780E1217877405121568DA
:1054680012179E7CFF7DFF12058974041215338B79
:105478000FEA450F7033850C82850D831256AC12E6
:105488001787850C82850D83A312179E7C027D00E9
:105498007A267B811203B57404121533E9700A74F5
:1054A8000112156874FFF0A3F08E828F83E0640206
:1054B8007039750C02750D00780C1217878E828F63
:1054C80083125165E5082404FAE5093400FB120D3E
:1054D800E77402121533850A82850B83E024028063
:1054E800097401121568EEF0A3EFF0740112156843
:1054F8001256BDF07401121568A31256B502564033
:10550800E50E450F6003025646850C82850D831211
:105518005166AA16AB171206B5850A82850B8374E5
:1055280002F0EA850882850983F085128285138353
:10553800EB025643E50E450F60030256461256D459
:10554800F8A3E0F9850A82850B837402F0E88508E0
:1055580082850983F0E98512828513830256438583
:105568000C82850D83124F0B120DE1EAFC8C82A888
:1055780082C3950EE4950F405FE8650E7002E50F53
:1055880070047C008022851882851983E0FAE50E74
:105598002AFAE50F3400FBC3EA98EB94005003E0C5
:1055A8008005E50ECCC39CFCEC850A82850B83F054
:1055B8008C0A750B00780A121787850C82850D8373
:1055C800E0250EFCA3E0350FFDAA08AB09120DE794
:1055D80074021215330256A07510070256A0E50E84
:1055E800450F705A850C82850D831259BE850A8233
:1055F800850B8374071243881256B5124388A3E0BB
:10560800851282851383F0E82402FAE93400FB8AC4
:10561800828B831256B51256E41256BDA31256ED6C
:105628001256C6F0E82405F8E93400F9888289831F
:105638001256C6A3125709A3A3A3A3F0805A751044
:105648000B8055741D121568124F0B1206498A8279
:105658008B83E5824583603D1259BE880C890DE82D
:10566800450D6031780E121787780A121787780867
:105678001217877406121568E0F9EEFCEFFDAA16FA
:10568800AB17850C82850D831215727406121533BB
:10569800E9F510800375100EA91074051215337FF3
:1056A80010021646E0F50E750F00780E22E0850808
:1056B8008285098322125713221259C2E8221257EF
:1056C80013A3A322E0F508A3E0F50922850C82853F
:1056D8000D83E0F8A3E0F5838882E022A3A3F08A93
:1056E800828B83A322F088828983A3A3A3A322F0B9
:1056F8008A828B8312570022E0F50A750B00780A1C
:1057080022F088828983A312571322E085088285B4
:105718000983A3A32274EE12157474FE12151D8A50
:105728000A8B0BECFAEDFB7414121568E0F510A364
:10573800E0F5117416121568E0FE7418121568E089
:10574800F50EA3E0F50F851882851983AC82AD8329
:105758001205838A0C8B0DEA450D604985188285F0
:105768001983124F0B1206498A828B83E58245837F
:10577800602FA3A31256CCE50845096024780E12C1
:1057880017877810121787EEF9AC0CAD0DAA0AAB83
:105798000B850882850983121572740412153380EB
:1057A80006790E80027901024BA574F612157474FD
:1057B800FE12151D740C1215681256C185188285C3
:1057C8001983F07401121568E9F0E4F508F5097811
:1057D80008121787750802780812178774041215BB
:1057E80068858208858309780812178712069D74D0
:1057F800061215337402121533806874F712157483
:10580800EAFEEBFF89087C197D031206B5EA54020B
:10581800600BA908EEFAEFFB120577800279010206
:10582800428474F612157474FF6A700374FF6B7007
:10583800168C828D83125870E4F08C828D83A3A31A
:10584800A3125870A380181206858A088B09A80825
:10585800A909E849600D8882898374FF124386A3E9
:10586800A3E4F07F0202164674FFF0A3F08C828D49
:1058780083A3A32274F61215741206858A828B8379
:10588800E58245836006A3A3E0FA80027A007B00E4
:1058980080D174F21215748A088B09ECFEEDFF743E
:1058A8000E121568E0F50A1206858A0C8B0DA80CF5
:1058B800A90DE8497026EEFCEFFD7AFF7BFF120682
:1058C800858A0C8B0DA80CA90DE849700479118004
:1058D8001688828983E508F0A3E509F08882898320
:1058E800A3A3E50AF079007F0602164674EE1215A6
:1058F80074EAFEEBFF8C088D09890C741412156884
:105908001259BE7416121568124F0B750D00E8492E
:1059180060030259B27402650C60030259AD741237
:105928001215681259C8FCA3E0F9EC2400F50EE43E
:1059380039F50FEAF4F8EBF4F9EC58F8E50F59F9F2
:10594800E849705CE5082406F8ED3400F9880A890E
:105958000B8882F5831259D31206B58A108B11E58C
:105968000E65107004E50F65116042780E121787F6
:10597800850A82850B831259D31206BB740212154D
:1059880033E9F50D7027780E121787850882850987
:1059980083A3A31259D11206CD7402121533800DB8
:1059A800750D808008750D0D8003750D0BA90D020E
:1059B800506A8E828F831259C222E0F8A3E0F9223E
:1059C8001259C288828983E022A3A3E0FCA3E0FDE8
:1059D800EEFAEFFB223400F50D850C82F58322E008
:1059E80028FEA3E039FF8E828F832274F212157489
:1059F800EAFEEBFF890B7401650B600E7402650B00
:105A0800706A7901120889E97062EEFAEFFB1206F2
:105A18007F8A088B09EA45096047750A00800B7C74
:105A2800177D007900120DFF050A9002E6E0F8E5FF
:105A38000AC3985021E50A75F017A4F8A9F085085B
:105A480082850983A3A3E028FAA3E039FB8A828B25
:105A58008312447370C985088285098374FFF0A393
:105A6800F07C197D03EEFAEFFB1206AF0258EF74D3
:105A7800F21215748A088B09ECFEEDFF740E1215EC
:105A8800681252549009E7E0F4603D7A097B0012ED
:105A98000E0BEA4B60328A828B8374B1F0A3E41256
:105AA80056E6A31256E4A3E508F0A3E509125AD373
:105AB800EEF0A3EF125AD3A3A3E50AF0A3E50BF087
:105AC8009009E7E0F9120E170258EFF08A828B83EB
:105AD800A3A3A3A3A322C082C0839061907404F0FF
:105AE800A37448F0A37402F09061807440F0906150
:105AF800BC7403F09061877419F0906265741BF0B0
:105B0800906249E0C3941390619C400A7409F09034
:105B1800606674018007740DF0906066E4F090612F
:105B28009A7433F0A37455F09061A0743AF090051C
:105B38003FE064017009C2919003A67467800590E4
